{"abi":[{"type":"constructor","inputs":[{"name":"_admin","type":"address","internalType":"address"},{"name":"_admin_dev","type":"address","internalType":"address"},{"name":"_token","type":"address","internalType":"address"}],"stateMutability":"nonpayable"},{"type":"function","name":"MIN_AMOUNT","inputs":[],"outputs":[{"name":"","type":"uint256","internalType":"uint256"}],"stateMutability":"view"},{"type":"function","name":"admin","inputs":[],"outputs":[{"name":"","type":"address","internalType":"address"}],"stateMutability":"view"},{"type":"function","name":"adminClose","inputs":[{"name":"experimentId","type":"uint256","internalType":"uint256"}],"outputs":[],"stateMutability":"nonpayable"},{"type":"function","name":"adminCreateExperiment","inputs":[{"name":"costMin","type":"uint256","internalType":"uint256"},{"name":"costMax","type":"uint256","internalType":"uint256"}],"outputs":[{"name":"","type":"uint256","internalType":"uint256"}],"stateMutability":"nonpayable"},{"type":"function","name":"adminRefund","inputs":[{"name":"experimentId","type":"uint256","internalType":"uint256"},{"name":"depositors","type":"address[]","internalType":"address[]"}],"outputs":[],"stateMutability":"nonpayable"},{"type":"function","name":"adminReturnBet","inputs":[{"name":"experimentId","type":"uint256","internalType":"uint256"},{"name":"users","type":"address[]","internalType":"address[]"}],"outputs":[],"stateMutability":"nonpayable"},{"type":"function","name":"adminSetResult","inputs":[{"name":"experimentId","type":"uint256","internalType":"uint256"},{"name":"result","type":"uint8","internalType":"uint8"}],"outputs":[],"stateMutability":"nonpayable"},{"type":"function","name":"adminWithdraw","inputs":[{"name":"experimentId","type":"uint256","internalType":"uint256"}],"outputs":[],"stateMutability":"nonpayable"},{"type":"function","name":"admin_dev","inputs":[],"outputs":[{"name":"","type":"address","internalType":"address"}],"stateMutability":"view"},{"type":"function","name":"bets0","inputs":[{"name":"","type":"uint256","internalType":"uint256"},{"name":"","type":"address","internalType":"address"}],"outputs":[{"name":"","type":"uint256","internalType":"uint256"}],"stateMutability":"view"},{"type":"function","name":"bets1","inputs":[{"name":"","type":"uint256","internalType":"uint256"},{"name":"","type":"address","internalType":"address"}],"outputs":[{"name":"","type":"uint256","internalType":"uint256"}],"stateMutability":"view"},{"type":"function","name":"deposits","inputs":[{"name":"","type":"uint256","internalType":"uint256"},{"name":"","type":"address","internalType":"address"}],"outputs":[{"name":"","type":"uint256","internalType":"uint256"}],"stateMutability":"view"},{"type":"function","name":"experiments","inputs":[{"name":"","type":"uint256","internalType":"uint256"}],"outputs":[{"name":"costMin","type":"uint256","internalType":"uint256"},{"name":"costMax","type":"uint256","internalType":"uint256"},{"name":"totalDeposited","type":"uint256","internalType":"uint256"},{"name":"totalBet0","type":"uint256","internalType":"uint256"},{"name":"totalBet1","type":"uint256","internalType":"uint256"},{"name":"experimentCreatedAt","type":"uint256","internalType":"uint256"},{"name":"bettingOutcome","type":"uint8","internalType":"uint8"},{"name":"open","type":"bool","internalType":"bool"}],"stateMutability":"view"},{"type":"function","name":"getExperimentInfo","inputs":[{"name":"experimentId","type":"uint256","internalType":"uint256"}],"outputs":[{"name":"costMin","type":"uint256","internalType":"uint256"},{"name":"costMax","type":"uint256","internalType":"uint256"},{"name":"totalDeposited","type":"uint256","internalType":"uint256"},{"name":"totalBet0","type":"uint256","internalType":"uint256"},{"name":"totalBet1","type":"uint256","internalType":"uint256"},{"name":"experimentCreatedAt","type":"uint256","internalType":"uint256"},{"name":"bettingOutcome","type":"uint8","internalType":"uint8"},{"name":"open","type":"bool","internalType":"bool"}],"stateMutability":"view"},{"type":"function","name":"getUserExperiments","inputs":[{"name":"user","type":"address","internalType":"address"}],"outputs":[{"name":"experimentIds","type":"uint256[]","internalType":"uint256[]"},{"name":"depositAmounts","type":"uint256[]","internalType":"uint256[]"}],"stateMutability":"view"},{"type":"function","name":"getUserPosition","inputs":[{"name":"experimentId","type":"uint256","internalType":"uint256"},{"name":"user","type":"address","internalType":"address"}],"outputs":[{"name":"depositAmount","type":"uint256","internalType":"uint256"},{"name":"betAmount0","type":"uint256","internalType":"uint256"},{"name":"betAmount1","type":"uint256","internalType":"uint256"}],"stateMutability":"view"},{"type":"function","name":"nextExperimentId","inputs":[],"outputs":[{"name":"","type":"uint256","internalType":"uint256"}],"stateMutability":"view"},{"type":"function","name":"token","inputs":[],"outputs":[{"name":"","type":"address","internalType":"contract IERC20"}],"stateMutability":"view"},{"type":"function","name":"userBet","inputs":[{"name":"experimentId","type":"uint256","internalType":"uint256"},{"name":"betAmount0","type":"uint256","internalType":"uint256"},{"name":"betAmount1","type":"uint256","internalType":"uint256"}],"outputs":[],"stateMutability":"nonpayable"},{"type":"function","name":"userClaimBetProfit","inputs":[{"name":"experimentId","type":"uint256","internalType":"uint256"}],"outputs":[{"name":"","type":"uint256","internalType":"uint256"}],"stateMutability":"nonpayable"},{"type":"function","name":"userDeposit","inputs":[{"name":"experimentId","type":"uint256","internalType":"uint256"},{"name":"amount","type":"uint256","internalType":"uint256"}],"outputs":[],"stateMutability":"nonpayable"},{"type":"function","name":"userFundAndBet","inputs":[{"name":"experimentId","type":"uint256","internalType":"uint256"},{"name":"fundAmount","type":"uint256","internalType":"uint256"},{"name":"betAmount0","type":"uint256","internalType":"uint256"},{"name":"betAmount1","type":"uint256","internalType":"uint256"}],"outputs":[],"stateMutability":"nonpayable"},{"type":"function","name":"userUnbet","inputs":[{"name":"experimentId","type":"uint256","internalType":"uint256"}],"outputs":[],"stateMutability":"nonpayable"},{"type":"function","name":"userUndeposit","inputs":[{"name":"experimentId","type":"uint256","internalType":"uint256"}],"outputs":[],"stateMutability":"nonpayable"},{"type":"event","name":"AdminClose","inputs":[{"name":"experimentId","type":"uint256","indexed":true,"internalType":"uint256"}],"anonymous":false},{"type":"event","name":"AdminWithdraw","inputs":[{"name":"experimentId","type":"uint256","indexed":true,"internalType":"uint256"},{"name":"amount","type":"uint256","indexed":false,"internalType":"uint256"}],"anonymous":false},{"type":"event","name":"BetPlaced","inputs":[{"name":"experimentId","type":"uint256","indexed":true,"internalType":"uint256"},{"name":"bettor","type":"address","indexed":true,"internalType":"address"},{"name":"outcome","type":"uint8","indexed":false,"internalType":"uint8"},{"name":"amount","type":"uint256","indexed":false,"internalType":"uint256"}],"anonymous":false},{"type":"event","name":"BetProfitClaimed","inputs":[{"name":"experimentId","type":"uint256","indexed":true,"internalType":"uint256"},{"name":"winner","type":"address","indexed":true,"internalType":"address"},{"name":"payout","type":"uint256","indexed":false,"internalType":"uint256"}],"anonymous":false},{"type":"event","name":"BetReturned","inputs":[{"name":"experimentId","type":"uint256","indexed":true,"internalType":"uint256"},{"name":"bettor","type":"address","indexed":true,"internalType":"address"},{"name":"amount","type":"uint256","indexed":false,"internalType":"uint256"}],"anonymous":false},{"type":"event","name":"Deposited","inputs":[{"name":"experimentId","type":"uint256","indexed":true,"internalType":"uint256"},{"name":"depositor","type":"address","indexed":true,"internalType":"address"},{"name":"amount","type":"uint256","indexed":false,"internalType":"uint256"}],"anonymous":false},{"type":"event","name":"ExperimentCreated","inputs":[{"name":"experimentId","type":"uint256","indexed":true,"internalType":"uint256"},{"name":"costMin","type":"uint256","indexed":false,"internalType":"uint256"},{"name":"costMax","type":"uint256","indexed":false,"internalType":"uint256"}],"anonymous":false},{"type":"event","name":"ResultSet","inputs":[{"name":"experimentId","type":"uint256","indexed":true,"internalType":"uint256"},{"name":"result","type":"uint8","indexed":false,"internalType":"uint8"}],"anonymous":false},{"type":"event","name":"Undeposited","inputs":[{"name":"experimentId","type":"uint256","indexed":true,"internalType":"uint256"},{"name":"depositor","type":"address","indexed":true,"internalType":"address"},{"name":"amount","type":"uint256","indexed":false,"internalType":"uint256"}],"anonymous":false}],"bytecode":{"object":"0x60e060405234801561000f575f80fd5b50604051614c60380380614c6083398181016040528101906100319190610283565b5f73ffffffffffffffffffffffffffffffffffffffff168373ffffffffffffffffffffffffffffffffffffffff160361009f576040517f08c379a00000000000000000000000000000000000000000000000000000000081526004016100969061032d565b60405180910390fd5b5f73ffffffffffffffffffffffffffffffffffffffff168273ffffffffffffffffffffffffffffffffffffffff160361010d576040517f08c379a000000000000000000000000000000000000000000000000000000000815260040161010490610395565b60405180910390fd5b5f73ffffffffffffffffffffffffffffffffffffffff168173ffffffffffffffffffffffffffffffffffffffff160361017b576040517f08c379a0000000000000000000000000000000000000000000000000000000008152600401610172906103fd565b60405180910390fd5b8273ffffffffffffffffffffffffffffffffffffffff1660808173ffffffffffffffffffffffffffffffffffffffff16815250508173ffffffffffffffffffffffffffffffffffffffff1660a08173ffffffffffffffffffffffffffffffffffffffff16815250508073ffffffffffffffffffffffffffffffffffffffff1660c08173ffffffffffffffffffffffffffffffffffffffff16815250505f808190555050505061041b565b5f80fd5b5f73ffffffffffffffffffffffffffffffffffffffff82169050919050565b5f61025282610229565b9050919050565b61026281610248565b811461026c575f80fd5b50565b5f8151905061027d81610259565b92915050565b5f805f6060848603121561029a57610299610225565b5b5f6102a78682870161026f565b93505060206102b88682870161026f565b92505060406102c98682870161026f565b9150509250925092565b5f82825260208201905092915050565b7f41646d696e20616464726573732063616e6e6f74206265207a65726f000000005f82015250565b5f610317601c836102d3565b9150610322826102e3565b602082019050919050565b5f6020820190508181035f8301526103448161030b565b9050919050565b7f41646d696e5f64657620616464726573732063616e6e6f74206265207a65726f5f82015250565b5f61037f6020836102d3565b915061038a8261034b565b602082019050919050565b5f6020820190508181035f8301526103ac81610373565b9050919050565b7f546f6b656e20616464726573732063616e6e6f74206265207a65726f000000005f82015250565b5f6103e7601c836102d3565b91506103f2826103b3565b602082019050919050565b5f6020820190508181035f830152610414816103db565b9050919050565b60805160a05160c0516147966104ca5f395f8181610b3101528181610f750152818161185a01528181611b4b01528181611f5901528181612248015281816125b001528181612df10152612f3201525f818161052001528181610738015281816107b1015281816128ff0152612b6601525f81816104cb0152818161075c015281816110a80152818161198a01528181611b87015281816128aa01528181612aed0152612b1101526147965ff3fe608060405234801561000f575f80fd5b5060043610610155575f3560e01c8063924020b4116100c1578063e40b1e311161007a578063e40b1e31146103ff578063eb4706b51461041d578063f229be8114610454578063f851a44014610470578063f9a3be041461048e578063fc0c546a146104aa57610155565b8063924020b41461033a57806395003a0f14610356578063b4e94f7a1461038d578063c4164274146103a9578063d53a36cb146103c5578063ddbcb5fa146103e157610155565b806353a58de11161011357806353a58de11461023f5780635fe3c8ed1461026f578063718eeffc146102a05780637c5b4a37146102bc578063869da9db146102d8578063869df59c1461030a57610155565b8062c624501461015957806310b81915146101895780632504d63a146101b9578063410fa4f3146101d757806347593352146101f35780634932d87d14610223575b5f80fd5b610173600480360381019061016e9190612f8f565b6104c8565b6040516101809190612fdc565b60405180910390f35b6101a3600480360381019061019e919061304f565b610716565b6040516101b09190612fdc565b60405180910390f35b6101c1610736565b6040516101ce919061309c565b60405180910390f35b6101f160048036038101906101ec9190613116565b61075a565b005b61020d60048036038101906102089190613173565b610cbf565b60405161021a9190612fdc565b60405180910390f35b61023d600480360381019061023891906131d4565b6110a6565b005b6102596004803603810190610254919061304f565b61138c565b6040516102669190612fdc565b60405180910390f35b61028960048036038101906102849190613212565b6113ac565b6040516102979291906132f4565b60405180910390f35b6102ba60048036038101906102b59190613173565b6115d2565b005b6102d660048036038101906102d19190613173565b611988565b005b6102f260048036038101906102ed919061304f565b611c81565b60405161030193929190613329565b60405180910390f35b610324600480360381019061031f919061304f565b611d78565b6040516103319190612fdc565b60405180910390f35b610354600480360381019061034f9190613173565b611d98565b005b610370600480360381019061036b9190613173565b612086565b604051610384989796959493929190613387565b60405180910390f35b6103a760048036038101906103a29190613403565b6120fe565b005b6103c360048036038101906103be9190612f8f565b612135565b005b6103df60048036038101906103da9190613467565b6123f3565b005b6103e961283f565b6040516103f69190612fdc565b60405180910390f35b610407612846565b6040516104149190612fdc565b60405180910390f35b61043760048036038101906104329190613173565b61284b565b60405161044b989796959493929190613387565b60405180910390f35b61046e60048036038101906104699190613173565b6128a8565b005b610478612aeb565b604051610485919061309c565b60405180910390f35b6104a860048036038101906104a39190613116565b612b0f565b005b6104b2612f30565b6040516104bf9190613512565b60405180910390f35b5f7f000000000000000000000000000000000000000000000000000000000000000073ffffffffffffffffffffffffffffffffffffffff163373ffffffffffffffffffffffffffffffffffffffff16148061056e57507f000000000000000000000000000000000000000000000000000000000000000073ffffffffffffffffffffffffffffffffffffffff163373ffffffffffffffffffffffffffffffffffffffff16145b6105ad576040517f08c379a00000000000000000000000000000000000000000000000000000000081526004016105a4906135ab565b60405180910390fd5b620f42408310156105f3576040517f08c379a00000000000000000000000000000000000000000000000000000000081526004016105ea90613639565b60405180910390fd5b82821015610636576040517f08c379a000000000000000000000000000000000000000000000000000000000815260040161062d906136c7565b60405180910390fd5b5f805f81548092919061064890613712565b9190505590505f60015f8381526020019081526020015f20905084815f01819055508381600101819055505f81600201819055505f81600301819055505f816004018190555060ff816006015f6101000a81548160ff021916908360ff16021790555042816005018190555060018160060160016101000a81548160ff021916908315150217905550817fa50648571e1c813a4bcc3aa4af6facdda67d632aee011898c3b4156f630abbd18686604051610703929190613759565b60405180910390a2819250505092915050565b6004602052815f5260405f20602052805f5260405f205f91509150505481565b7f000000000000000000000000000000000000000000000000000000000000000081565b7f000000000000000000000000000000000000000000000000000000000000000073ffffffffffffffffffffffffffffffffffffffff163373ffffffffffffffffffffffffffffffffffffffff1614806107ff57507f000000000000000000000000000000000000000000000000000000000000000073ffffffffffffffffffffffffffffffffffffffff163373ffffffffffffffffffffffffffffffffffffffff16145b61083e576040517f08c379a0000000000000000000000000000000000000000000000000000000008152600401610835906135ab565b60405180910390fd5b8260015f8281526020019081526020015f2060060160019054906101000a900460ff166108a0576040517f08c379a0000000000000000000000000000000000000000000000000000000008152600401610897906137ca565b60405180910390fd5b5f60015f8681526020019081526020015f2090505f84849050116108f9576040517f08c379a00000000000000000000000000000000000000000000000000000000081526004016108f090613832565b60405180910390fd5b5f5b84849050811015610cb7575f60035f8881526020019081526020015f205f87878581811061092c5761092b613850565b5b90506020020160208101906109419190613212565b73ffffffffffffffffffffffffffffffffffffffff1673ffffffffffffffffffffffffffffffffffffffff1681526020019081526020015f205490505f60045f8981526020019081526020015f205f8888868181106109a3576109a2613850565b5b90506020020160208101906109b89190613212565b73ffffffffffffffffffffffffffffffffffffffff1673ffffffffffffffffffffffffffffffffffffffff1681526020019081526020015f205490505f8183610a01919061387d565b90505f811115610ca7575f60035f8b81526020019081526020015f205f8a8a88818110610a3157610a30613850565b5b9050602002016020810190610a469190613212565b73ffffffffffffffffffffffffffffffffffffffff1673ffffffffffffffffffffffffffffffffffffffff1681526020019081526020015f20819055505f60045f8b81526020019081526020015f205f8a8a88818110610aa957610aa8613850565b5b9050602002016020810190610abe9190613212565b73ffffffffffffffffffffffffffffffffffffffff1673ffffffffffffffffffffffffffffffffffffffff1681526020019081526020015f208190555082856003015f828254610b0e91906138b0565b9250508190555081856004015f828254610b2891906138b0565b925050819055507f000000000000000000000000000000000000000000000000000000000000000073ffffffffffffffffffffffffffffffffffffffff1663a9059cbb898987818110610b7e57610b7d613850565b5b9050602002016020810190610b939190613212565b836040518363ffffffff1660e01b8152600401610bb19291906138e3565b6020604051808303815f875af1158015610bcd573d5f803e3d5ffd5b505050506040513d601f19601f82011682018060405250810190610bf19190613934565b610c30576040517f08c379a0000000000000000000000000000000000000000000000000000000008152600401610c27906139a9565b60405180910390fd5b878785818110610c4357610c42613850565b5b9050602002016020810190610c589190613212565b73ffffffffffffffffffffffffffffffffffffffff16897f757db202439744d74cb7a1a6abc7549f4a49e7efba6f870c33e2bf48ef343cb383604051610c9e9190612fdc565b60405180910390a35b50505080806001019150506108fb565b505050505050565b5f8060015f8481526020019081526020015f20905060ff816006015f9054906101000a900460ff1660ff1603610d2a576040517f08c379a0000000000000000000000000000000000000000000000000000000008152600401610d2190613a11565b60405180910390fd5b5f80826006015f9054906101000a900460ff1660ff1603610e5e575f60035f8681526020019081526020015f205f3373ffffffffffffffffffffffffffffffffffffffff1673ffffffffffffffffffffffffffffffffffffffff1681526020019081526020015f205490505f8111610dd7576040517f08c379a0000000000000000000000000000000000000000000000000000000008152600401610dce90613a79565b60405180910390fd5b826003015483600401548460030154610df0919061387d565b82610dfb9190613a97565b610e059190613b05565b91505f60035f8781526020019081526020015f205f3373ffffffffffffffffffffffffffffffffffffffff1673ffffffffffffffffffffffffffffffffffffffff1681526020019081526020015f208190555050610f73565b5f60045f8681526020019081526020015f205f3373ffffffffffffffffffffffffffffffffffffffff1673ffffffffffffffffffffffffffffffffffffffff1681526020019081526020015f205490505f8111610ef0576040517f08c379a0000000000000000000000000000000000000000000000000000000008152600401610ee790613a79565b60405180910390fd5b826004015483600401548460030154610f09919061387d565b82610f149190613a97565b610f1e9190613b05565b91505f60045f8781526020019081526020015f205f3373ffffffffffffffffffffffffffffffffffffffff1673ffffffffffffffffffffffffffffffffffffffff1681526020019081526020015f2081905550505b7f000000000000000000000000000000000000000000000000000000000000000073ffffffffffffffffffffffffffffffffffffffff1663a9059cbb33836040518363ffffffff1660e01b8152600401610fce9291906138e3565b6020604051808303815f875af1158015610fea573d5f803e3d5ffd5b505050506040513d601f19601f8201168201806040525081019061100e9190613934565b61104d576040517f08c379a0000000000000000000000000000000000000000000000000000000008152600401611044906139a9565b60405180910390fd5b3373ffffffffffffffffffffffffffffffffffffffff16847f641d020f1a3109a6c79899ca76fbb17eb9c61c186657c48526cdb951e853aead836040516110949190612fdc565b60405180910390a38092505050919050565b7f000000000000000000000000000000000000000000000000000000000000000073ffffffffffffffffffffffffffffffffffffffff163373ffffffffffffffffffffffffffffffffffffffff1614611134576040517f08c379a000000000000000000000000000000000000000000000000000000000815260040161112b90613ba5565b60405180910390fd5b5f8160ff161480611148575060018160ff16145b611187576040517f08c379a000000000000000000000000000000000000000000000000000000000815260040161117e90613c0d565b60405180910390fd5b5f60015f8481526020019081526020015f2090508060060160019054906101000a900460ff16156111ed576040517f08c379a00000000000000000000000000000000000000000000000000000000081526004016111e490613c75565b60405180910390fd5b60ff816006015f9054906101000a900460ff1660ff1614611243576040517f08c379a000000000000000000000000000000000000000000000000000000000815260040161123a90613cdd565b60405180910390fd5b5f8160030154118061125857505f8160040154115b611297576040517f08c379a000000000000000000000000000000000000000000000000000000000815260040161128e90613d45565b60405180910390fd5b5f8260ff16036112ec575f8160030154116112e7576040517f08c379a00000000000000000000000000000000000000000000000000000000081526004016112de90613dad565b60405180910390fd5b611333565b5f816004015411611332576040517f08c379a000000000000000000000000000000000000000000000000000000000815260040161132990613dad565b60405180910390fd5b5b81816006015f6101000a81548160ff021916908360ff160217905550827f96a72b23d1215cfbff54a1749ea932981d1fcff3f46592daf9331409cfbf7e3d8360405161137f9190613dcb565b60405180910390a2505050565b6002602052815f5260405f20602052805f5260405f205f91509150505481565b6060805f805b5f5481101561142b575f60025f8381526020019081526020015f205f8773ffffffffffffffffffffffffffffffffffffffff1673ffffffffffffffffffffffffffffffffffffffff1681526020019081526020015f2054111561141e57818061141a90613712565b9250505b80806001019150506113b2565b508067ffffffffffffffff81111561144657611445613de4565b5b6040519080825280602002602001820160405280156114745781602001602082028036833780820191505090505b5092508067ffffffffffffffff81111561149157611490613de4565b5b6040519080825280602002602001820160405280156114bf5781602001602082028036833780820191505090505b5091505f805b5f548110156115ca575f60025f8381526020019081526020015f205f8873ffffffffffffffffffffffffffffffffffffffff1673ffffffffffffffffffffffffffffffffffffffff1681526020019081526020015f205411156115bd578085838151811061153657611535613850565b5b60200260200101818152505060025f8281526020019081526020015f205f8773ffffffffffffffffffffffffffffffffffffffff1673ffffffffffffffffffffffffffffffffffffffff1681526020019081526020015f20548483815181106115a2576115a1613850565b5b60200260200101818152505081806115b990613712565b9250505b80806001019150506114c5565b505050915091565b5f60015f8381526020019081526020015f2090506276a70081600501546115f9919061387d565b42101561163b576040517f08c379a000000000000000000000000000000000000000000000000000000000815260040161163290613e5b565b60405180910390fd5b60ff816006015f9054906101000a900460ff1660ff1614611691576040517f08c379a000000000000000000000000000000000000000000000000000000000815260040161168890613cdd565b60405180910390fd5b5f60035f8481526020019081526020015f205f3373ffffffffffffffffffffffffffffffffffffffff1673ffffffffffffffffffffffffffffffffffffffff1681526020019081526020015f205490505f60045f8581526020019081526020015f205f3373ffffffffffffffffffffffffffffffffffffffff1673ffffffffffffffffffffffffffffffffffffffff1681526020019081526020015f205490505f818361173e919061387d565b90505f8111611782576040517f08c379a000000000000000000000000000000000000000000000000000000000815260040161177990613ec3565b60405180910390fd5b5f60035f8781526020019081526020015f205f3373ffffffffffffffffffffffffffffffffffffffff1673ffffffffffffffffffffffffffffffffffffffff1681526020019081526020015f20819055505f60045f8781526020019081526020015f205f3373ffffffffffffffffffffffffffffffffffffffff1673ffffffffffffffffffffffffffffffffffffffff1681526020019081526020015f208190555082846003015f82825461183791906138b0565b9250508190555081846004015f82825461185191906138b0565b925050819055507f000000000000000000000000000000000000000000000000000000000000000073ffffffffffffffffffffffffffffffffffffffff1663a9059cbb33836040518363ffffffff1660e01b81526004016118b39291906138e3565b6020604051808303815f875af11580156118cf573d5f803e3d5ffd5b505050506040513d601f19601f820116820180604052508101906118f39190613934565b611932576040517f08c379a0000000000000000000000000000000000000000000000000000000008152600401611929906139a9565b60405180910390fd5b3373ffffffffffffffffffffffffffffffffffffffff16857f757db202439744d74cb7a1a6abc7549f4a49e7efba6f870c33e2bf48ef343cb3836040516119799190612fdc565b60405180910390a35050505050565b7f000000000000000000000000000000000000000000000000000000000000000073ffffffffffffffffffffffffffffffffffffffff163373ffffffffffffffffffffffffffffffffffffffff1614611a16576040517f08c379a0000000000000000000000000000000000000000000000000000000008152600401611a0d90613ba5565b60405180910390fd5b8060015f8281526020019081526020015f2060060160019054906101000a900460ff16611a78576040517f08c379a0000000000000000000000000000000000000000000000000000000008152600401611a6f906137ca565b60405180910390fd5b5f60015f8481526020019081526020015f2090505f816002015411611ad2576040517f08c379a0000000000000000000000000000000000000000000000000000000008152600401611ac990613f2b565b60405180910390fd5b805f015481600201541015611b1c576040517f08c379a0000000000000000000000000000000000000000000000000000000008152600401611b1390613fb9565b60405180910390fd5b5f816002015490505f82600201819055505f8260060160016101000a81548160ff0219169083151502179055507f000000000000000000000000000000000000000000000000000000000000000073ffffffffffffffffffffffffffffffffffffffff1663a9059cbb7f0000000000000000000000000000000000000000000000000000000000000000836040518363ffffffff1660e01b8152600401611bc49291906138e3565b6020604051808303815f875af1158015611be0573d5f803e3d5ffd5b505050506040513d601f19601f82011682018060405250810190611c049190613934565b611c43576040517f08c379a0000000000000000000000000000000000000000000000000000000008152600401611c3a90614021565b60405180910390fd5b837f94ebb62a252249c867ecb758d386f50a95be7e8df9e1c52917c9cf494327dd7d82604051611c739190612fdc565b60405180910390a250505050565b5f805f60025f8681526020019081526020015f205f8573ffffffffffffffffffffffffffffffffffffffff1673ffffffffffffffffffffffffffffffffffffffff1681526020019081526020015f205460035f8781526020019081526020015f205f8673ffffffffffffffffffffffffffffffffffffffff1673ffffffffffffffffffffffffffffffffffffffff1681526020019081526020015f205460045f8881526020019081526020015f205f8773ffffffffffffffffffffffffffffffffffffffff1673ffffffffffffffffffffffffffffffffffffffff1681526020019081526020015f20549250925092509250925092565b6003602052815f5260405f20602052805f5260405f205f91509150505481565b8060015f8281526020019081526020015f2060060160019054906101000a900460ff16611dfa576040517f08c379a0000000000000000000000000000000000000000000000000000000008152600401611df1906137ca565b60405180910390fd5b5f60015f8481526020019081526020015f2090505f60025f8581526020019081526020015f205f3373ffffffffffffffffffffffffffffffffffffffff1673ffffffffffffffffffffffffffffffffffffffff1681526020019081526020015f205411611e9c576040517f08c379a0000000000000000000000000000000000000000000000000000000008152600401611e9390614089565b60405180910390fd5b5f60025f8581526020019081526020015f205f3373ffffffffffffffffffffffffffffffffffffffff1673ffffffffffffffffffffffffffffffffffffffff1681526020019081526020015f205490505f60025f8681526020019081526020015f205f3373ffffffffffffffffffffffffffffffffffffffff1673ffffffffffffffffffffffffffffffffffffffff1681526020019081526020015f208190555080826002015f828254611f5091906138b0565b925050819055507f000000000000000000000000000000000000000000000000000000000000000073ffffffffffffffffffffffffffffffffffffffff1663a9059cbb33836040518363ffffffff1660e01b8152600401611fb29291906138e3565b6020604051808303815f875af1158015611fce573d5f803e3d5ffd5b505050506040513d601f19601f82011682018060405250810190611ff29190613934565b612031576040517f08c379a0000000000000000000000000000000000000000000000000000000008152600401612028906140f1565b60405180910390fd5b3373ffffffffffffffffffffffffffffffffffffffff16847f9bf56934175280aa1916f0593e2fedd5a548b20ba9c49b69a768b794a87cdd28836040516120789190612fdc565b60405180910390a350505050565b5f805f805f805f805f60015f8b81526020019081526020015f209050805f015481600101548260020154836003015484600401548560050154866006015f9054906101000a900460ff168760060160019054906101000a900460ff169850985098509850985098509850985050919395975091939597565b5f831115612111576121108484612135565b5b5f82118061211e57505f81115b1561212f5761212e8483836123f3565b5b50505050565b8160015f8281526020019081526020015f2060060160019054906101000a900460ff16612197576040517f08c379a000000000000000000000000000000000000000000000000000000000815260040161218e906137ca565b60405180910390fd5b620f424082116121dc576040517f08c379a00000000000000000000000000000000000000000000000000000000081526004016121d39061417f565b60405180910390fd5b5f60015f8581526020019081526020015f2090508060010154838260020154612205919061387d565b1115612246576040517f08c379a000000000000000000000000000000000000000000000000000000000815260040161223d9061420d565b60405180910390fd5b7f000000000000000000000000000000000000000000000000000000000000000073ffffffffffffffffffffffffffffffffffffffff166323b872dd3330866040518463ffffffff1660e01b81526004016122a39392919061422b565b6020604051808303815f875af11580156122bf573d5f803e3d5ffd5b505050506040513d601f19601f820116820180604052508101906122e39190613934565b612322576040517f08c379a0000000000000000000000000000000000000000000000000000000008152600401612319906140f1565b60405180910390fd5b8260025f8681526020019081526020015f205f3373ffffffffffffffffffffffffffffffffffffffff1673ffffffffffffffffffffffffffffffffffffffff1681526020019081526020015f205f82825461237d919061387d565b9250508190555082816002015f828254612397919061387d565b925050819055503373ffffffffffffffffffffffffffffffffffffffff16847f1599c0fcf897af5babc2bfcf707f5dc050f841b044d97c3251ecec35b9abf80b856040516123e59190612fdc565b60405180910390a350505050565b8260015f8281526020019081526020015f2060060160019054906101000a900460ff16612455576040517f08c379a000000000000000000000000000000000000000000000000000000000815260040161244c906137ca565b60405180910390fd5b5f8284612462919061387d565b90505f81116124a6576040517f08c379a000000000000000000000000000000000000000000000000000000000815260040161249d906142aa565b60405180910390fd5b5f8414806124b65750620f424084115b6124f5576040517f08c379a00000000000000000000000000000000000000000000000000000000081526004016124ec90614338565b60405180910390fd5b5f8314806125055750620f424083115b612544576040517f08c379a000000000000000000000000000000000000000000000000000000000815260040161253b906143c6565b60405180910390fd5b5f60015f8781526020019081526020015f20905060ff816006015f9054906101000a900460ff1660ff16146125ae576040517f08c379a00000000000000000000000000000000000000000000000000000000081526004016125a59061442e565b60405180910390fd5b7f000000000000000000000000000000000000000000000000000000000000000073ffffffffffffffffffffffffffffffffffffffff166323b872dd3330856040518463ffffffff1660e01b815260040161260b9392919061422b565b6020604051808303815f875af1158015612627573d5f803e3d5ffd5b505050506040513d601f19601f8201168201806040525081019061264b9190613934565b61268a576040517f08c379a0000000000000000000000000000000000000000000000000000000008152600401612681906140f1565b60405180910390fd5b5f851115612760578460035f8881526020019081526020015f205f3373ffffffffffffffffffffffffffffffffffffffff1673ffffffffffffffffffffffffffffffffffffffff1681526020019081526020015f205f8282546126ed919061387d565b9250508190555084816003015f828254612707919061387d565b925050819055503373ffffffffffffffffffffffffffffffffffffffff16867f4f1eed5e863a822b0f9eb960dfdab2cc5a99beec4b191f2a7a9c7e28e5a155245f88604051612757929190614485565b60405180910390a35b5f841115612837578360045f8881526020019081526020015f205f3373ffffffffffffffffffffffffffffffffffffffff1673ffffffffffffffffffffffffffffffffffffffff1681526020019081526020015f205f8282546127c3919061387d565b9250508190555083816004015f8282546127dd919061387d565b925050819055503373ffffffffffffffffffffffffffffffffffffffff16867f4f1eed5e863a822b0f9eb960dfdab2cc5a99beec4b191f2a7a9c7e28e5a1552460018760405161282e9291906144e5565b60405180910390a35b505050505050565b620f424081565b5f5481565b6001602052805f5260405f205f91509050805f015490806001015490806002015490806003015490806004015490806005015490806006015f9054906101000a900460ff16908060060160019054906101000a900460ff16905088565b7f000000000000000000000000000000000000000000000000000000000000000073ffffffffffffffffffffffffffffffffffffffff163373ffffffffffffffffffffffffffffffffffffffff16148061294d57507f000000000000000000000000000000000000000000000000000000000000000073ffffffffffffffffffffffffffffffffffffffff163373ffffffffffffffffffffffffffffffffffffffff16145b61298c576040517f08c379a0000000000000000000000000000000000000000000000000000000008152600401612983906135ab565b60405180910390fd5b8060015f8281526020019081526020015f2060060160019054906101000a900460ff166129ee576040517f08c379a00000000000000000000000000000000000000000000000000000000081526004016129e5906137ca565b60405180910390fd5b5f60015f8481526020019081526020015f2090505f816002015414612a48576040517f08c379a0000000000000000000000000000000000000000000000000000000008152600401612a3f90614556565b60405180910390fd5b5f8160030154148015612a5e57505f8160040154145b612a9d576040517f08c379a0000000000000000000000000000000000000000000000000000000008152600401612a94906145be565b60405180910390fd5b5f8160060160016101000a81548160ff021916908315150217905550827f8208c3301e2b33ed01bd95b0317bf43fb2120df72b7406bef4ef4310b1bce5f060405160405180910390a2505050565b7f000000000000000000000000000000000000000000000000000000000000000081565b7f000000000000000000000000000000000000000000000000000000000000000073ffffffffffffffffffffffffffffffffffffffff163373ffffffffffffffffffffffffffffffffffffffff161480612bb457507f000000000000000000000000000000000000000000000000000000000000000073ffffffffffffffffffffffffffffffffffffffff163373ffffffffffffffffffffffffffffffffffffffff16145b612bf3576040517f08c379a0000000000000000000000000000000000000000000000000000000008152600401612bea906135ab565b60405180910390fd5b8260015f8281526020019081526020015f2060060160019054906101000a900460ff16612c55576040517f08c379a0000000000000000000000000000000000000000000000000000000008152600401612c4c906137ca565b60405180910390fd5b5f60015f8681526020019081526020015f2090505f816002015411612caf576040517f08c379a0000000000000000000000000000000000000000000000000000000008152600401612ca690614626565b60405180910390fd5b5f8484905011612cf4576040517f08c379a0000000000000000000000000000000000000000000000000000000008152600401612ceb906146b4565b60405180910390fd5b5f5b84849050811015612f28575f858583818110612d1557612d14613850565b5b9050602002016020810190612d2a9190613212565b90505f60025f8981526020019081526020015f205f8373ffffffffffffffffffffffffffffffffffffffff1673ffffffffffffffffffffffffffffffffffffffff1681526020019081526020015f205490505f811115612f19575f60025f8a81526020019081526020015f205f8473ffffffffffffffffffffffffffffffffffffffff1673ffffffffffffffffffffffffffffffffffffffff1681526020019081526020015f208190555080846002015f828254612de891906138b0565b925050819055507f000000000000000000000000000000000000000000000000000000000000000073ffffffffffffffffffffffffffffffffffffffff1663a9059cbb83836040518363ffffffff1660e01b8152600401612e4a9291906138e3565b6020604051808303815f875af1158015612e66573d5f803e3d5ffd5b505050506040513d601f19601f82011682018060405250810190612e8a9190613934565b612ec9576040517f08c379a0000000000000000000000000000000000000000000000000000000008152600401612ec090614742565b60405180910390fd5b8173ffffffffffffffffffffffffffffffffffffffff16887f9bf56934175280aa1916f0593e2fedd5a548b20ba9c49b69a768b794a87cdd2883604051612f109190612fdc565b60405180910390a35b50508080600101915050612cf6565b505050505050565b7f000000000000000000000000000000000000000000000000000000000000000081565b5f80fd5b5f80fd5b5f819050919050565b612f6e81612f5c565b8114612f78575f80fd5b50565b5f81359050612f8981612f65565b92915050565b5f8060408385031215612fa557612fa4612f54565b5b5f612fb285828601612f7b565b9250506020612fc385828601612f7b565b9150509250929050565b612fd681612f5c565b82525050565b5f602082019050612fef5f830184612fcd565b92915050565b5f73ffffffffffffffffffffffffffffffffffffffff82169050919050565b5f61301e82612ff5565b9050919050565b61302e81613014565b8114613038575f80fd5b50565b5f8135905061304981613025565b92915050565b5f806040838503121561306557613064612f54565b5b5f61307285828601612f7b565b92505060206130838582860161303b565b9150509250929050565b61309681613014565b82525050565b5f6020820190506130af5f83018461308d565b92915050565b5f80fd5b5f80fd5b5f80fd5b5f8083601f8401126130d6576130d56130b5565b5b8235905067ffffffffffffffff8111156130f3576130f26130b9565b5b60208301915083602082028301111561310f5761310e6130bd565b5b9250929050565b5f805f6040848603121561312d5761312c612f54565b5b5f61313a86828701612f7b565b935050602084013567ffffffffffffffff81111561315b5761315a612f58565b5b613167868287016130c1565b92509250509250925092565b5f6020828403121561318857613187612f54565b5b5f61319584828501612f7b565b91505092915050565b5f60ff82169050919050565b6131b38161319e565b81146131bd575f80fd5b50565b5f813590506131ce816131aa565b92915050565b5f80604083850312156131ea576131e9612f54565b5b5f6131f785828601612f7b565b9250506020613208858286016131c0565b9150509250929050565b5f6020828403121561322757613226612f54565b5b5f6132348482850161303b565b91505092915050565b5f81519050919050565b5f82825260208201905092915050565b5f819050602082019050919050565b61326f81612f5c565b82525050565b5f6132808383613266565b60208301905092915050565b5f602082019050919050565b5f6132a28261323d565b6132ac8185613247565b93506132b783613257565b805f5b838110156132e75781516132ce8882613275565b97506132d98361328c565b9250506001810190506132ba565b5085935050505092915050565b5f6040820190508181035f83015261330c8185613298565b905081810360208301526133208184613298565b90509392505050565b5f60608201905061333c5f830186612fcd565b6133496020830185612fcd565b6133566040830184612fcd565b949350505050565b6133678161319e565b82525050565b5f8115159050919050565b6133818161336d565b82525050565b5f6101008201905061339b5f83018b612fcd565b6133a8602083018a612fcd565b6133b56040830189612fcd565b6133c26060830188612fcd565b6133cf6080830187612fcd565b6133dc60a0830186612fcd565b6133e960c083018561335e565b6133f660e0830184613378565b9998505050505050505050565b5f805f806080858703121561341b5761341a612f54565b5b5f61342887828801612f7b565b945050602061343987828801612f7b565b935050604061344a87828801612f7b565b925050606061345b87828801612f7b565b91505092959194509250565b5f805f6060848603121561347e5761347d612f54565b5b5f61348b86828701612f7b565b935050602061349c86828701612f7b565b92505060406134ad86828701612f7b565b9150509250925092565b5f819050919050565b5f6134da6134d56134d084612ff5565b6134b7565b612ff5565b9050919050565b5f6134eb826134c0565b9050919050565b5f6134fc826134e1565b9050919050565b61350c816134f2565b82525050565b5f6020820190506135255f830184613503565b92915050565b5f82825260208201905092915050565b7f4f6e6c792061646d696e206f722061646d696e5f6465762063616e2063616c6c5f8201527f20746869732066756e6374696f6e000000000000000000000000000000000000602082015250565b5f613595602e8361352b565b91506135a08261353b565b604082019050919050565b5f6020820190508181035f8301526135c281613589565b9050919050565b7f4d696e696d756d20636f7374206d757374206265206174206c656173742031205f8201527f5553444300000000000000000000000000000000000000000000000000000000602082015250565b5f61362360248361352b565b915061362e826135c9565b604082019050919050565b5f6020820190508181035f83015261365081613617565b9050919050565b7f4d6178696d756d20636f7374206d757374206265203e3d206d696e696d756d205f8201527f636f737400000000000000000000000000000000000000000000000000000000602082015250565b5f6136b160248361352b565b91506136bc82613657565b604082019050919050565b5f6020820190508181035f8301526136de816136a5565b9050919050565b7f4e487b71000000000000000000000000000000000000000000000000000000005f52601160045260245ffd5b5f61371c82612f5c565b91507fffffffffffffffffffffffffffffffffffffffffffffffffffffffffffffffff820361374e5761374d6136e5565b5b600182019050919050565b5f60408201905061376c5f830185612fcd565b6137796020830184612fcd565b9392505050565b7f4578706572696d656e7420697320636c6f7365640000000000000000000000005f82015250565b5f6137b460148361352b565b91506137bf82613780565b602082019050919050565b5f6020820190508181035f8301526137e1816137a8565b9050919050565b7f4d7573742073706563696679206174206c65617374206f6e65207573657200005f82015250565b5f61381c601e8361352b565b9150613827826137e8565b602082019050919050565b5f6020820190508181035f83015261384981613810565b9050919050565b7f4e487b71000000000000000000000000000000000000000000000000000000005f52603260045260245ffd5b5f61388782612f5c565b915061389283612f5c565b92508282019050808211156138aa576138a96136e5565b5b92915050565b5f6138ba82612f5c565b91506138c583612f5c565b92508282039050818111156138dd576138dc6136e5565b5b92915050565b5f6040820190506138f65f83018561308d565b6139036020830184612fcd565b9392505050565b6139138161336d565b811461391d575f80fd5b50565b5f8151905061392e8161390a565b92915050565b5f6020828403121561394957613948612f54565b5b5f61395684828501613920565b91505092915050565b7f5472616e73666572206661696c656400000000000000000000000000000000005f82015250565b5f613993600f8361352b565b915061399e8261395f565b602082019050919050565b5f6020820190508181035f8301526139c081613987565b9050919050565b7f526573756c74206e6f74207365740000000000000000000000000000000000005f82015250565b5f6139fb600e8361352b565b9150613a06826139c7565b602082019050919050565b5f6020820190508181035f830152613a28816139ef565b9050919050565b7f4e6f2077696e6e696e67206265740000000000000000000000000000000000005f82015250565b5f613a63600e8361352b565b9150613a6e82613a2f565b602082019050919050565b5f6020820190508181035f830152613a9081613a57565b9050919050565b5f613aa182612f5c565b9150613aac83612f5c565b9250828202613aba81612f5c565b91508282048414831517613ad157613ad06136e5565b5b5092915050565b7f4e487b71000000000000000000000000000000000000000000000000000000005f52601260045260245ffd5b5f613b0f82612f5c565b9150613b1a83612f5c565b925082613b2a57613b29613ad8565b5b828204905092915050565b7f4f6e6c792061646d696e2063616e2063616c6c20746869732066756e6374696f5f8201527f6e00000000000000000000000000000000000000000000000000000000000000602082015250565b5f613b8f60218361352b565b9150613b9a82613b35565b604082019050919050565b5f6020820190508181035f830152613bbc81613b83565b9050919050565b7f496e76616c696420726573756c740000000000000000000000000000000000005f82015250565b5f613bf7600e8361352b565b9150613c0282613bc3565b602082019050919050565b5f6020820190508181035f830152613c2481613beb565b9050919050565b7f4578706572696d656e74206973206e6f7420636c6f73656400000000000000005f82015250565b5f613c5f60188361352b565b9150613c6a82613c2b565b602082019050919050565b5f6020820190508181035f830152613c8c81613c53565b9050919050565b7f526573756c7420616c72656164792073657400000000000000000000000000005f82015250565b5f613cc760128361352b565b9150613cd282613c93565b602082019050919050565b5f6020820190508181035f830152613cf481613cbb565b9050919050565b7f4e6f206265747320706c616365640000000000000000000000000000000000005f82015250565b5f613d2f600e8361352b565b9150613d3a82613cfb565b602082019050919050565b5f6020820190508181035f830152613d5c81613d23565b9050919050565b7f57696e6e696e67207369646520686173206e6f206265747300000000000000005f82015250565b5f613d9760188361352b565b9150613da282613d63565b602082019050919050565b5f6020820190508181035f830152613dc481613d8b565b9050919050565b5f602082019050613dde5f83018461335e565b92915050565b7f4e487b71000000000000000000000000000000000000000000000000000000005f52604160045260245ffd5b7f4d757374207761697420393020646179730000000000000000000000000000005f82015250565b5f613e4560118361352b565b9150613e5082613e11565b602082019050919050565b5f6020820190508181035f830152613e7281613e39565b9050919050565b7f4e6f206265747320746f207769746864726177000000000000000000000000005f82015250565b5f613ead60138361352b565b9150613eb882613e79565b602082019050919050565b5f6020820190508181035f830152613eda81613ea1565b9050919050565b7f4e6f2066756e647320746f2077697468647261770000000000000000000000005f82015250565b5f613f1560148361352b565b9150613f2082613ee1565b602082019050919050565b5f6020820190508181035f830152613f4281613f09565b9050919050565b7f4d696e696d756d20636f737420686173206e6f74206265656e207265616368655f8201527f6400000000000000000000000000000000000000000000000000000000000000602082015250565b5f613fa360218361352b565b9150613fae82613f49565b604082019050919050565b5f6020820190508181035f830152613fd081613f97565b9050919050565b7f546f6b656e207472616e7366657220746f2061646d696e206661696c656400005f82015250565b5f61400b601e8361352b565b915061401682613fd7565b602082019050919050565b5f6020820190508181035f83015261403881613fff565b9050919050565b7f4e6f206465706f7369747320746f2077697468647261770000000000000000005f82015250565b5f61407360178361352b565b915061407e8261403f565b602082019050919050565b5f6020820190508181035f8301526140a081614067565b9050919050565b7f546f6b656e207472616e73666572206661696c656400000000000000000000005f82015250565b5f6140db60158361352b565b91506140e6826140a7565b602082019050919050565b5f6020820190508181035f830152614108816140cf565b9050919050565b7f4465706f736974206d7573742062652067726561746572207468616e203120555f8201527f5344430000000000000000000000000000000000000000000000000000000000602082015250565b5f61416960238361352b565b91506141748261410f565b604082019050919050565b5f6020820190508181035f8301526141968161415d565b9050919050565b7f4465706f73697420776f756c6420657863656564206d6178696d756d20636f735f8201527f7400000000000000000000000000000000000000000000000000000000000000602082015250565b5f6141f760218361352b565b91506142028261419d565b604082019050919050565b5f6020820190508181035f830152614224816141eb565b9050919050565b5f60608201905061423e5f83018661308d565b61424b602083018561308d565b6142586040830184612fcd565b949350505050565b7f4d75737420626574206f6e206174206c65617374206f6e65206f7574636f6d655f82015250565b5f61429460208361352b565b915061429f82614260565b602082019050919050565b5f6020820190508181035f8301526142c181614288565b9050919050565b7f426574206f6e206f7574636f6d652030206d7573742062652030206f722067725f8201527f6561746572207468616e20312055534443000000000000000000000000000000602082015250565b5f61432260318361352b565b915061432d826142c8565b604082019050919050565b5f6020820190508181035f83015261434f81614316565b9050919050565b7f426574206f6e206f7574636f6d652031206d7573742062652030206f722067725f8201527f6561746572207468616e20312055534443000000000000000000000000000000602082015250565b5f6143b060318361352b565b91506143bb82614356565b604082019050919050565b5f6020820190508181035f8301526143dd816143a4565b9050919050565b7f42657474696e6720636c6f7365640000000000000000000000000000000000005f82015250565b5f614418600e8361352b565b9150614423826143e4565b602082019050919050565b5f6020820190508181035f8301526144458161440c565b9050919050565b5f819050919050565b5f61446f61446a6144658461444c565b6134b7565b61319e565b9050919050565b61447f81614455565b82525050565b5f6040820190506144985f830185614476565b6144a56020830184612fcd565b9392505050565b5f819050919050565b5f6144cf6144ca6144c5846144ac565b6134b7565b61319e565b9050919050565b6144df816144b5565b82525050565b5f6040820190506144f85f8301856144d6565b6145056020830184612fcd565b9392505050565b7f4d7573742072657475726e20616c6c206465706f7369747320666972737400005f82015250565b5f614540601e8361352b565b915061454b8261450c565b602082019050919050565b5f6020820190508181035f83015261456d81614534565b9050919050565b7f4d7573742072657475726e20616c6c20626574732066697273740000000000005f82015250565b5f6145a8601a8361352b565b91506145b382614574565b602082019050919050565b5f6020820190508181035f8301526145d58161459c565b9050919050565b7f4e6f2066756e647320746f2072657475726e00000000000000000000000000005f82015250565b5f61461060128361352b565b915061461b826145dc565b602082019050919050565b5f6020820190508181035f83015261463d81614604565b9050919050565b7f4d7573742073706563696679206174206c65617374206f6e65206465706f73695f8201527f746f720000000000000000000000000000000000000000000000000000000000602082015250565b5f61469e60238361352b565b91506146a982614644565b604082019050919050565b5f6020820190508181035f8301526146cb81614692565b9050919050565b7f546f6b656e207472616e7366657220746f206465706f7369746f72206661696c5f8201527f6564000000000000000000000000000000000000000000000000000000000000602082015250565b5f61472c60228361352b565b9150614737826146d2565b604082019050919050565b5f6020820190508181035f83015261475981614720565b905091905056fea2646970667358221220a813aa617ef01ee9452835c17da8eacf8d22218f756ef8c6ef219a3e437b0aca64736f6c634300081a0033","linkReferences":{}},"methodIdentifiers":{"MIN_AMOUNT()":"ddbcb5fa","admin()":"f851a440","adminClose(uint256)":"f229be81","adminCreateExperiment(uint256,uint256)":"00c62450","adminRefund(uint256,address[])":"f9a3be04","adminReturnBet(uint256,address[])":"410fa4f3","adminSetResult(uint256,uint8)":"4932d87d","adminWithdraw(uint256)":"7c5b4a37","admin_dev()":"2504d63a","bets0(uint256,address)":"869df59c","bets1(uint256,address)":"10b81915","deposits(uint256,address)":"53a58de1","experiments(uint256)":"eb4706b5","getExperimentInfo(uint256)":"95003a0f","getUserExperiments(address)":"5fe3c8ed","getUserPosition(uint256,address)":"869da9db","nextExperimentId()":"e40b1e31","token()":"fc0c546a","userBet(uint256,uint256,uint256)":"d53a36cb","userClaimBetProfit(uint256)":"47593352","userDeposit(uint256,uint256)":"c4164274","userFundAndBet(uint256,uint256,uint256,uint256)":"b4e94f7a","userUnbet(uint256)":"718eeffc","userUndeposit(uint256)":"924020b4"},"id":16}