{"abi":[{"type":"constructor","inputs":[{"name":"_admin","type":"address","internalType":"address"},{"name":"_admin_dev","type":"address","internalType":"address"},{"name":"_token","type":"address","internalType":"address"}],"stateMutability":"nonpayable"},{"type":"function","name":"MIN_AMOUNT","inputs":[],"outputs":[{"name":"","type":"uint256","internalType":"uint256"}],"stateMutability":"view"},{"type":"function","name":"admin","inputs":[],"outputs":[{"name":"","type":"address","internalType":"address"}],"stateMutability":"view"},{"type":"function","name":"adminClose","inputs":[{"name":"experimentId","type":"uint256","internalType":"uint256"}],"outputs":[],"stateMutability":"nonpayable"},{"type":"function","name":"adminCreateExperiment","inputs":[{"name":"costMin","type":"uint256","internalType":"uint256"},{"name":"costMax","type":"uint256","internalType":"uint256"}],"outputs":[{"name":"","type":"uint256","internalType":"uint256"}],"stateMutability":"nonpayable"},{"type":"function","name":"adminRefund","inputs":[{"name":"experimentId","type":"uint256","internalType":"uint256"},{"name":"depositors","type":"address[]","internalType":"address[]"}],"outputs":[],"stateMutability":"nonpayable"},{"type":"function","name":"adminReturnBet","inputs":[{"name":"experimentId","type":"uint256","internalType":"uint256"},{"name":"users","type":"address[]","internalType":"address[]"}],"outputs":[],"stateMutability":"nonpayable"},{"type":"function","name":"adminSetResult","inputs":[{"name":"experimentId","type":"uint256","internalType":"uint256"},{"name":"result","type":"uint8","internalType":"uint8"}],"outputs":[],"stateMutability":"nonpayable"},{"type":"function","name":"adminWithdraw","inputs":[{"name":"experimentId","type":"uint256","internalType":"uint256"}],"outputs":[],"stateMutability":"nonpayable"},{"type":"function","name":"admin_dev","inputs":[],"outputs":[{"name":"","type":"address","internalType":"address"}],"stateMutability":"view"},{"type":"function","name":"bets0","inputs":[{"name":"","type":"uint256","internalType":"uint256"},{"name":"","type":"address","internalType":"address"}],"outputs":[{"name":"","type":"uint256","internalType":"uint256"}],"stateMutability":"view"},{"type":"function","name":"bets1","inputs":[{"name":"","type":"uint256","internalType":"uint256"},{"name":"","type":"address","internalType":"address"}],"outputs":[{"name":"","type":"uint256","internalType":"uint256"}],"stateMutability":"view"},{"type":"function","name":"deposits","inputs":[{"name":"","type":"uint256","internalType":"uint256"},{"name":"","type":"address","internalType":"address"}],"outputs":[{"name":"","type":"uint256","internalType":"uint256"}],"stateMutability":"view"},{"type":"function","name":"experiments","inputs":[{"name":"","type":"uint256","internalType":"uint256"}],"outputs":[{"name":"costMin","type":"uint256","internalType":"uint256"},{"name":"costMax","type":"uint256","internalType":"uint256"},{"name":"totalDeposited","type":"uint256","internalType":"uint256"},{"name":"totalBet0","type":"uint256","internalType":"uint256"},{"name":"totalBet1","type":"uint256","internalType":"uint256"},{"name":"bettingOutcome","type":"uint8","internalType":"uint8"},{"name":"experimentCreatedAt","type":"uint256","internalType":"uint256"},{"name":"open","type":"bool","internalType":"bool"}],"stateMutability":"view"},{"type":"function","name":"getExperimentInfo","inputs":[{"name":"experimentId","type":"uint256","internalType":"uint256"}],"outputs":[{"name":"costMin","type":"uint256","internalType":"uint256"},{"name":"costMax","type":"uint256","internalType":"uint256"},{"name":"totalDeposited","type":"uint256","internalType":"uint256"},{"name":"open","type":"bool","internalType":"bool"}],"stateMutability":"view"},{"type":"function","name":"getUserDeposit","inputs":[{"name":"experimentId","type":"uint256","internalType":"uint256"},{"name":"user","type":"address","internalType":"address"}],"outputs":[{"name":"","type":"uint256","internalType":"uint256"}],"stateMutability":"view"},{"type":"function","name":"getUserExperiments","inputs":[{"name":"user","type":"address","internalType":"address"}],"outputs":[{"name":"experimentIds","type":"uint256[]","internalType":"uint256[]"},{"name":"depositAmounts","type":"uint256[]","internalType":"uint256[]"}],"stateMutability":"view"},{"type":"function","name":"nextExperimentId","inputs":[],"outputs":[{"name":"","type":"uint256","internalType":"uint256"}],"stateMutability":"view"},{"type":"function","name":"token","inputs":[],"outputs":[{"name":"","type":"address","internalType":"contract IERC20"}],"stateMutability":"view"},{"type":"function","name":"userBet","inputs":[{"name":"experimentId","type":"uint256","internalType":"uint256"},{"name":"betAmount0","type":"uint256","internalType":"uint256"},{"name":"betAmount1","type":"uint256","internalType":"uint256"}],"outputs":[],"stateMutability":"nonpayable"},{"type":"function","name":"userClaimBetProfit","inputs":[{"name":"experimentId","type":"uint256","internalType":"uint256"}],"outputs":[],"stateMutability":"nonpayable"},{"type":"function","name":"userDeposit","inputs":[{"name":"experimentId","type":"uint256","internalType":"uint256"},{"name":"amount","type":"uint256","internalType":"uint256"}],"outputs":[],"stateMutability":"nonpayable"},{"type":"function","name":"userFundAndBet","inputs":[{"name":"experimentId","type":"uint256","internalType":"uint256"},{"name":"fundAmount","type":"uint256","internalType":"uint256"},{"name":"betAmount0","type":"uint256","internalType":"uint256"},{"name":"betAmount1","type":"uint256","internalType":"uint256"}],"outputs":[],"stateMutability":"nonpayable"},{"type":"function","name":"userUnbet","inputs":[{"name":"experimentId","type":"uint256","internalType":"uint256"}],"outputs":[],"stateMutability":"nonpayable"},{"type":"function","name":"userUndeposit","inputs":[{"name":"experimentId","type":"uint256","internalType":"uint256"}],"outputs":[],"stateMutability":"nonpayable"},{"type":"event","name":"AdminClose","inputs":[{"name":"experimentId","type":"uint256","indexed":true,"internalType":"uint256"}],"anonymous":false},{"type":"event","name":"AdminWithdraw","inputs":[{"name":"experimentId","type":"uint256","indexed":true,"internalType":"uint256"},{"name":"amount","type":"uint256","indexed":false,"internalType":"uint256"}],"anonymous":false},{"type":"event","name":"BetPlaced","inputs":[{"name":"experimentId","type":"uint256","indexed":true,"internalType":"uint256"},{"name":"bettor","type":"address","indexed":true,"internalType":"address"},{"name":"outcome","type":"uint8","indexed":false,"internalType":"uint8"},{"name":"amount","type":"uint256","indexed":false,"internalType":"uint256"}],"anonymous":false},{"type":"event","name":"BetProfitClaimed","inputs":[{"name":"experimentId","type":"uint256","indexed":true,"internalType":"uint256"},{"name":"winner","type":"address","indexed":true,"internalType":"address"},{"name":"payout","type":"uint256","indexed":false,"internalType":"uint256"}],"anonymous":false},{"type":"event","name":"BetReturned","inputs":[{"name":"experimentId","type":"uint256","indexed":true,"internalType":"uint256"},{"name":"bettor","type":"address","indexed":true,"internalType":"address"},{"name":"amount","type":"uint256","indexed":false,"internalType":"uint256"}],"anonymous":false},{"type":"event","name":"Deposited","inputs":[{"name":"experimentId","type":"uint256","indexed":true,"internalType":"uint256"},{"name":"depositor","type":"address","indexed":true,"internalType":"address"},{"name":"amount","type":"uint256","indexed":false,"internalType":"uint256"}],"anonymous":false},{"type":"event","name":"ExperimentCreated","inputs":[{"name":"experimentId","type":"uint256","indexed":true,"internalType":"uint256"},{"name":"costMin","type":"uint256","indexed":false,"internalType":"uint256"},{"name":"costMax","type":"uint256","indexed":false,"internalType":"uint256"}],"anonymous":false},{"type":"event","name":"ResultSet","inputs":[{"name":"experimentId","type":"uint256","indexed":true,"internalType":"uint256"},{"name":"result","type":"uint8","indexed":false,"internalType":"uint8"}],"anonymous":false},{"type":"event","name":"Undeposited","inputs":[{"name":"experimentId","type":"uint256","indexed":true,"internalType":"uint256"},{"name":"depositor","type":"address","indexed":true,"internalType":"address"},{"name":"amount","type":"uint256","indexed":false,"internalType":"uint256"}],"anonymous":false}],"bytecode":{"object":"0x60e060405234801561000f575f80fd5b50604051614b4d380380614b4d83398181016040528101906100319190610283565b5f73ffffffffffffffffffffffffffffffffffffffff168373ffffffffffffffffffffffffffffffffffffffff160361009f576040517f08c379a00000000000000000000000000000000000000000000000000000000081526004016100969061032d565b60405180910390fd5b5f73ffffffffffffffffffffffffffffffffffffffff168273ffffffffffffffffffffffffffffffffffffffff160361010d576040517f08c379a000000000000000000000000000000000000000000000000000000000815260040161010490610395565b60405180910390fd5b5f73ffffffffffffffffffffffffffffffffffffffff168173ffffffffffffffffffffffffffffffffffffffff160361017b576040517f08c379a0000000000000000000000000000000000000000000000000000000008152600401610172906103fd565b60405180910390fd5b8273ffffffffffffffffffffffffffffffffffffffff1660808173ffffffffffffffffffffffffffffffffffffffff16815250508173ffffffffffffffffffffffffffffffffffffffff1660a08173ffffffffffffffffffffffffffffffffffffffff16815250508073ffffffffffffffffffffffffffffffffffffffff1660c08173ffffffffffffffffffffffffffffffffffffffff16815250505f808190555050505061041b565b5f80fd5b5f73ffffffffffffffffffffffffffffffffffffffff82169050919050565b5f61025282610229565b9050919050565b61026281610248565b811461026c575f80fd5b50565b5f8151905061027d81610259565b92915050565b5f805f6060848603121561029a57610299610225565b5b5f6102a78682870161026f565b93505060206102b88682870161026f565b92505060406102c98682870161026f565b9150509250925092565b5f82825260208201905092915050565b7f41646d696e20616464726573732063616e6e6f74206265207a65726f000000005f82015250565b5f610317601c836102d3565b9150610322826102e3565b602082019050919050565b5f6020820190508181035f8301526103448161030b565b9050919050565b7f41646d696e5f64657620616464726573732063616e6e6f74206265207a65726f5f82015250565b5f61037f6020836102d3565b915061038a8261034b565b602082019050919050565b5f6020820190508181035f8301526103ac81610373565b9050919050565b7f546f6b656e20616464726573732063616e6e6f74206265207a65726f000000005f82015250565b5f6103e7601c836102d3565b91506103f2826103b3565b602082019050919050565b5f6020820190508181035f830152610414816103db565b9050919050565b60805160a05160c0516146836104ca5f395f8181610b1501528181610f580152818161188d01528181611b7c01528181611e9201528181612150015281816124b901528181612cf60152612e3701525f81816105060152818161071d01528181610796015281816128070152612a6c01525f81816104b10152818161074101528181611086015281816119bd01528181611bb8015281816127b2015281816129f30152612a1701526146835ff3fe608060405234801561000f575f80fd5b5060043610610155575f3560e01c8063924020b4116100c1578063e40b1e311161007a578063e40b1e31146103e5578063eb4706b514610403578063f229be811461043a578063f851a44014610456578063f9a3be0414610474578063fc0c546a1461049057610155565b8063924020b41461032457806395003a0f14610340578063b4e94f7a14610373578063c41642741461038f578063d53a36cb146103ab578063ddbcb5fa146103c757610155565b80634e055244116101135780634e0552441461022b57806353a58de11461025b5780635fe3c8ed1461028b578063718eeffc146102bc5780637c5b4a37146102d8578063869df59c146102f457610155565b8062c624501461015957806310b81915146101895780632504d63a146101b9578063410fa4f3146101d757806347593352146101f35780634932d87d1461020f575b5f80fd5b610173600480360381019061016e9190612e94565b6104ae565b6040516101809190612ee1565b60405180910390f35b6101a3600480360381019061019e9190612f54565b6106fb565b6040516101b09190612ee1565b60405180910390f35b6101c161071b565b6040516101ce9190612fa1565b60405180910390f35b6101f160048036038101906101ec919061301b565b61073f565b005b61020d60048036038101906102089190613078565b610ca3565b005b610229600480360381019061022491906130d9565b611084565b005b61024560048036038101906102409190612f54565b611369565b6040516102529190612ee1565b60405180910390f35b61027560048036038101906102709190612f54565b6113bf565b6040516102829190612ee1565b60405180910390f35b6102a560048036038101906102a09190613117565b6113df565b6040516102b39291906131f9565b60405180910390f35b6102d660048036038101906102d19190613078565b611605565b005b6102f260048036038101906102ed9190613078565b6119bb565b005b61030e60048036038101906103099190612f54565b611cb2565b60405161031b9190612ee1565b60405180910390f35b61033e60048036038101906103399190613078565b611cd2565b005b61035a60048036038101906103559190613078565b611fbf565b60405161036a9493929190613248565b60405180910390f35b61038d6004803603810190610388919061328b565b612006565b005b6103a960048036038101906103a49190612e94565b61203d565b005b6103c560048036038101906103c091906132ef565b6122fb565b005b6103cf612748565b6040516103dc9190612ee1565b60405180910390f35b6103ed61274f565b6040516103fa9190612ee1565b60405180910390f35b61041d60048036038101906104189190613078565b612754565b60405161043198979695949392919061334e565b60405180910390f35b610454600480360381019061044f9190613078565b6127b0565b005b61045e6129f1565b60405161046b9190612fa1565b60405180910390f35b61048e6004803603810190610489919061301b565b612a15565b005b610498612e35565b6040516104a59190613425565b60405180910390f35b5f7f000000000000000000000000000000000000000000000000000000000000000073ffffffffffffffffffffffffffffffffffffffff163373ffffffffffffffffffffffffffffffffffffffff16148061055457507f000000000000000000000000000000000000000000000000000000000000000073ffffffffffffffffffffffffffffffffffffffff163373ffffffffffffffffffffffffffffffffffffffff16145b610593576040517f08c379a000000000000000000000000000000000000000000000000000000000815260040161058a906134be565b60405180910390fd5b620f42408310156105d9576040517f08c379a00000000000000000000000000000000000000000000000000000000081526004016105d09061354c565b60405180910390fd5b8282101561061c576040517f08c379a0000000000000000000000000000000000000000000000000000000008152600401610613906135da565b60405180910390fd5b5f805f81548092919061062e90613625565b9190505590505f60015f8381526020019081526020015f20905084815f01819055508381600101819055505f81600201819055505f81600301819055505f816004018190555060ff816005015f6101000a81548160ff021916908360ff1602179055504281600601819055506001816007015f6101000a81548160ff021916908315150217905550817fa50648571e1c813a4bcc3aa4af6facdda67d632aee011898c3b4156f630abbd186866040516106e892919061366c565b60405180910390a2819250505092915050565b6004602052815f5260405f20602052805f5260405f205f91509150505481565b7f000000000000000000000000000000000000000000000000000000000000000081565b7f000000000000000000000000000000000000000000000000000000000000000073ffffffffffffffffffffffffffffffffffffffff163373ffffffffffffffffffffffffffffffffffffffff1614806107e457507f000000000000000000000000000000000000000000000000000000000000000073ffffffffffffffffffffffffffffffffffffffff163373ffffffffffffffffffffffffffffffffffffffff16145b610823576040517f08c379a000000000000000000000000000000000000000000000000000000000815260040161081a906134be565b60405180910390fd5b8260015f8281526020019081526020015f206007015f9054906101000a900460ff16610884576040517f08c379a000000000000000000000000000000000000000000000000000000000815260040161087b906136dd565b60405180910390fd5b5f60015f8681526020019081526020015f2090505f84849050116108dd576040517f08c379a00000000000000000000000000000000000000000000000000000000081526004016108d490613745565b60405180910390fd5b5f5b84849050811015610c9b575f60035f8881526020019081526020015f205f8787858181106109105761090f613763565b5b90506020020160208101906109259190613117565b73ffffffffffffffffffffffffffffffffffffffff1673ffffffffffffffffffffffffffffffffffffffff1681526020019081526020015f205490505f60045f8981526020019081526020015f205f88888681811061098757610986613763565b5b905060200201602081019061099c9190613117565b73ffffffffffffffffffffffffffffffffffffffff1673ffffffffffffffffffffffffffffffffffffffff1681526020019081526020015f205490505f81836109e59190613790565b90505f811115610c8b575f60035f8b81526020019081526020015f205f8a8a88818110610a1557610a14613763565b5b9050602002016020810190610a2a9190613117565b73ffffffffffffffffffffffffffffffffffffffff1673ffffffffffffffffffffffffffffffffffffffff1681526020019081526020015f20819055505f60045f8b81526020019081526020015f205f8a8a88818110610a8d57610a8c613763565b5b9050602002016020810190610aa29190613117565b73ffffffffffffffffffffffffffffffffffffffff1673ffffffffffffffffffffffffffffffffffffffff1681526020019081526020015f208190555082856003015f828254610af291906137c3565b9250508190555081856004015f828254610b0c91906137c3565b925050819055507f000000000000000000000000000000000000000000000000000000000000000073ffffffffffffffffffffffffffffffffffffffff1663a9059cbb898987818110610b6257610b61613763565b5b9050602002016020810190610b779190613117565b836040518363ffffffff1660e01b8152600401610b959291906137f6565b6020604051808303815f875af1158015610bb1573d5f803e3d5ffd5b505050506040513d601f19601f82011682018060405250810190610bd59190613847565b610c14576040517f08c379a0000000000000000000000000000000000000000000000000000000008152600401610c0b906138bc565b60405180910390fd5b878785818110610c2757610c26613763565b5b9050602002016020810190610c3c9190613117565b73ffffffffffffffffffffffffffffffffffffffff16897f757db202439744d74cb7a1a6abc7549f4a49e7efba6f870c33e2bf48ef343cb383604051610c829190612ee1565b60405180910390a35b50505080806001019150506108df565b505050505050565b5f60015f8381526020019081526020015f20905060ff816005015f9054906101000a900460ff1660ff1603610d0d576040517f08c379a0000000000000000000000000000000000000000000000000000000008152600401610d0490613924565b60405180910390fd5b5f80826005015f9054906101000a900460ff1660ff1603610e41575f60035f8581526020019081526020015f205f3373ffffffffffffffffffffffffffffffffffffffff1673ffffffffffffffffffffffffffffffffffffffff1681526020019081526020015f205490505f8111610dba576040517f08c379a0000000000000000000000000000000000000000000000000000000008152600401610db19061398c565b60405180910390fd5b826003015483600401548460030154610dd39190613790565b82610dde91906139aa565b610de89190613a18565b91505f60035f8681526020019081526020015f205f3373ffffffffffffffffffffffffffffffffffffffff1673ffffffffffffffffffffffffffffffffffffffff1681526020019081526020015f208190555050610f56565b5f60045f8581526020019081526020015f205f3373ffffffffffffffffffffffffffffffffffffffff1673ffffffffffffffffffffffffffffffffffffffff1681526020019081526020015f205490505f8111610ed3576040517f08c379a0000000000000000000000000000000000000000000000000000000008152600401610eca9061398c565b60405180910390fd5b826004015483600401548460030154610eec9190613790565b82610ef791906139aa565b610f019190613a18565b91505f60045f8681526020019081526020015f205f3373ffffffffffffffffffffffffffffffffffffffff1673ffffffffffffffffffffffffffffffffffffffff1681526020019081526020015f2081905550505b7f000000000000000000000000000000000000000000000000000000000000000073ffffffffffffffffffffffffffffffffffffffff1663a9059cbb33836040518363ffffffff1660e01b8152600401610fb19291906137f6565b6020604051808303815f875af1158015610fcd573d5f803e3d5ffd5b505050506040513d601f19601f82011682018060405250810190610ff19190613847565b611030576040517f08c379a0000000000000000000000000000000000000000000000000000000008152600401611027906138bc565b60405180910390fd5b3373ffffffffffffffffffffffffffffffffffffffff16837f641d020f1a3109a6c79899ca76fbb17eb9c61c186657c48526cdb951e853aead836040516110779190612ee1565b60405180910390a3505050565b7f000000000000000000000000000000000000000000000000000000000000000073ffffffffffffffffffffffffffffffffffffffff163373ffffffffffffffffffffffffffffffffffffffff1614611112576040517f08c379a000000000000000000000000000000000000000000000000000000000815260040161110990613ab8565b60405180910390fd5b5f8160ff161480611126575060018160ff16145b611165576040517f08c379a000000000000000000000000000000000000000000000000000000000815260040161115c90613b20565b60405180910390fd5b5f60015f8481526020019081526020015f209050806007015f9054906101000a900460ff16156111ca576040517f08c379a00000000000000000000000000000000000000000000000000000000081526004016111c190613b88565b60405180910390fd5b60ff816005015f9054906101000a900460ff1660ff1614611220576040517f08c379a000000000000000000000000000000000000000000000000000000000815260040161121790613bf0565b60405180910390fd5b5f8160030154118061123557505f8160040154115b611274576040517f08c379a000000000000000000000000000000000000000000000000000000000815260040161126b90613c58565b60405180910390fd5b5f8260ff16036112c9575f8160030154116112c4576040517f08c379a00000000000000000000000000000000000000000000000000000000081526004016112bb90613cc0565b60405180910390fd5b611310565b5f81600401541161130f576040517f08c379a000000000000000000000000000000000000000000000000000000000815260040161130690613cc0565b60405180910390fd5b5b81816005015f6101000a81548160ff021916908360ff160217905550827f96a72b23d1215cfbff54a1749ea932981d1fcff3f46592daf9331409cfbf7e3d8360405161135c9190613cde565b60405180910390a2505050565b5f60025f8481526020019081526020015f205f8373ffffffffffffffffffffffffffffffffffffffff1673ffffffffffffffffffffffffffffffffffffffff1681526020019081526020015f2054905092915050565b6002602052815f5260405f20602052805f5260405f205f91509150505481565b6060805f805b5f5481101561145e575f60025f8381526020019081526020015f205f8773ffffffffffffffffffffffffffffffffffffffff1673ffffffffffffffffffffffffffffffffffffffff1681526020019081526020015f2054111561145157818061144d90613625565b9250505b80806001019150506113e5565b508067ffffffffffffffff81111561147957611478613cf7565b5b6040519080825280602002602001820160405280156114a75781602001602082028036833780820191505090505b5092508067ffffffffffffffff8111156114c4576114c3613cf7565b5b6040519080825280602002602001820160405280156114f25781602001602082028036833780820191505090505b5091505f805b5f548110156115fd575f60025f8381526020019081526020015f205f8873ffffffffffffffffffffffffffffffffffffffff1673ffffffffffffffffffffffffffffffffffffffff1681526020019081526020015f205411156115f0578085838151811061156957611568613763565b5b60200260200101818152505060025f8281526020019081526020015f205f8773ffffffffffffffffffffffffffffffffffffffff1673ffffffffffffffffffffffffffffffffffffffff1681526020019081526020015f20548483815181106115d5576115d4613763565b5b60200260200101818152505081806115ec90613625565b9250505b80806001019150506114f8565b505050915091565b5f60015f8381526020019081526020015f2090506276a700816006015461162c9190613790565b42101561166e576040517f08c379a000000000000000000000000000000000000000000000000000000000815260040161166590613d6e565b60405180910390fd5b60ff816005015f9054906101000a900460ff1660ff16146116c4576040517f08c379a00000000000000000000000000000000000000000000000000000000081526004016116bb90613bf0565b60405180910390fd5b5f60035f8481526020019081526020015f205f3373ffffffffffffffffffffffffffffffffffffffff1673ffffffffffffffffffffffffffffffffffffffff1681526020019081526020015f205490505f60045f8581526020019081526020015f205f3373ffffffffffffffffffffffffffffffffffffffff1673ffffffffffffffffffffffffffffffffffffffff1681526020019081526020015f205490505f81836117719190613790565b90505f81116117b5576040517f08c379a00000000000000000000000000000000000000000000000000000000081526004016117ac90613dd6565b60405180910390fd5b5f60035f8781526020019081526020015f205f3373ffffffffffffffffffffffffffffffffffffffff1673ffffffffffffffffffffffffffffffffffffffff1681526020019081526020015f20819055505f60045f8781526020019081526020015f205f3373ffffffffffffffffffffffffffffffffffffffff1673ffffffffffffffffffffffffffffffffffffffff1681526020019081526020015f208190555082846003015f82825461186a91906137c3565b9250508190555081846004015f82825461188491906137c3565b925050819055507f000000000000000000000000000000000000000000000000000000000000000073ffffffffffffffffffffffffffffffffffffffff1663a9059cbb33836040518363ffffffff1660e01b81526004016118e69291906137f6565b6020604051808303815f875af1158015611902573d5f803e3d5ffd5b505050506040513d601f19601f820116820180604052508101906119269190613847565b611965576040517f08c379a000000000000000000000000000000000000000000000000000000000815260040161195c906138bc565b60405180910390fd5b3373ffffffffffffffffffffffffffffffffffffffff16857f757db202439744d74cb7a1a6abc7549f4a49e7efba6f870c33e2bf48ef343cb3836040516119ac9190612ee1565b60405180910390a35050505050565b7f000000000000000000000000000000000000000000000000000000000000000073ffffffffffffffffffffffffffffffffffffffff163373ffffffffffffffffffffffffffffffffffffffff1614611a49576040517f08c379a0000000000000000000000000000000000000000000000000000000008152600401611a4090613ab8565b60405180910390fd5b8060015f8281526020019081526020015f206007015f9054906101000a900460ff16611aaa576040517f08c379a0000000000000000000000000000000000000000000000000000000008152600401611aa1906136dd565b60405180910390fd5b5f60015f8481526020019081526020015f2090505f816002015411611b04576040517f08c379a0000000000000000000000000000000000000000000000000000000008152600401611afb90613e3e565b60405180910390fd5b805f015481600201541015611b4e576040517f08c379a0000000000000000000000000000000000000000000000000000000008152600401611b4590613ecc565b60405180910390fd5b5f816002015490505f82600201819055505f826007015f6101000a81548160ff0219169083151502179055507f000000000000000000000000000000000000000000000000000000000000000073ffffffffffffffffffffffffffffffffffffffff1663a9059cbb7f0000000000000000000000000000000000000000000000000000000000000000836040518363ffffffff1660e01b8152600401611bf59291906137f6565b6020604051808303815f875af1158015611c11573d5f803e3d5ffd5b505050506040513d601f19601f82011682018060405250810190611c359190613847565b611c74576040517f08c379a0000000000000000000000000000000000000000000000000000000008152600401611c6b90613f34565b60405180910390fd5b837f94ebb62a252249c867ecb758d386f50a95be7e8df9e1c52917c9cf494327dd7d82604051611ca49190612ee1565b60405180910390a250505050565b6003602052815f5260405f20602052805f5260405f205f91509150505481565b8060015f8281526020019081526020015f206007015f9054906101000a900460ff16611d33576040517f08c379a0000000000000000000000000000000000000000000000000000000008152600401611d2a906136dd565b60405180910390fd5b5f60015f8481526020019081526020015f2090505f60025f8581526020019081526020015f205f3373ffffffffffffffffffffffffffffffffffffffff1673ffffffffffffffffffffffffffffffffffffffff1681526020019081526020015f205411611dd5576040517f08c379a0000000000000000000000000000000000000000000000000000000008152600401611dcc90613f9c565b60405180910390fd5b5f60025f8581526020019081526020015f205f3373ffffffffffffffffffffffffffffffffffffffff1673ffffffffffffffffffffffffffffffffffffffff1681526020019081526020015f205490505f60025f8681526020019081526020015f205f3373ffffffffffffffffffffffffffffffffffffffff1673ffffffffffffffffffffffffffffffffffffffff1681526020019081526020015f208190555080826002015f828254611e8991906137c3565b925050819055507f000000000000000000000000000000000000000000000000000000000000000073ffffffffffffffffffffffffffffffffffffffff1663a9059cbb33836040518363ffffffff1660e01b8152600401611eeb9291906137f6565b6020604051808303815f875af1158015611f07573d5f803e3d5ffd5b505050506040513d601f19601f82011682018060405250810190611f2b9190613847565b611f6a576040517f08c379a0000000000000000000000000000000000000000000000000000000008152600401611f6190614004565b60405180910390fd5b3373ffffffffffffffffffffffffffffffffffffffff16847f9bf56934175280aa1916f0593e2fedd5a548b20ba9c49b69a768b794a87cdd2883604051611fb19190612ee1565b60405180910390a350505050565b5f805f805f60015f8781526020019081526020015f209050805f015481600101548260020154836007015f9054906101000a900460ff169450945094509450509193509193565b5f83111561201957612018848461203d565b5b5f82118061202657505f81115b15612037576120368483836122fb565b5b50505050565b8160015f8281526020019081526020015f206007015f9054906101000a900460ff1661209e576040517f08c379a0000000000000000000000000000000000000000000000000000000008152600401612095906136dd565b60405180910390fd5b620f42408210156120e4576040517f08c379a00000000000000000000000000000000000000000000000000000000081526004016120db9061406c565b60405180910390fd5b5f60015f8581526020019081526020015f209050806001015483826002015461210d9190613790565b111561214e576040517f08c379a0000000000000000000000000000000000000000000000000000000008152600401612145906140fa565b60405180910390fd5b7f000000000000000000000000000000000000000000000000000000000000000073ffffffffffffffffffffffffffffffffffffffff166323b872dd3330866040518463ffffffff1660e01b81526004016121ab93929190614118565b6020604051808303815f875af11580156121c7573d5f803e3d5ffd5b505050506040513d601f19601f820116820180604052508101906121eb9190613847565b61222a576040517f08c379a000000000000000000000000000000000000000000000000000000000815260040161222190614004565b60405180910390fd5b8260025f8681526020019081526020015f205f3373ffffffffffffffffffffffffffffffffffffffff1673ffffffffffffffffffffffffffffffffffffffff1681526020019081526020015f205f8282546122859190613790565b9250508190555082816002015f82825461229f9190613790565b925050819055503373ffffffffffffffffffffffffffffffffffffffff16847f1599c0fcf897af5babc2bfcf707f5dc050f841b044d97c3251ecec35b9abf80b856040516122ed9190612ee1565b60405180910390a350505050565b8260015f8281526020019081526020015f206007015f9054906101000a900460ff1661235c576040517f08c379a0000000000000000000000000000000000000000000000000000000008152600401612353906136dd565b60405180910390fd5b5f82846123699190613790565b90505f81116123ad576040517f08c379a00000000000000000000000000000000000000000000000000000000081526004016123a490614197565b60405180910390fd5b5f8414806123be5750620f42408410155b6123fd576040517f08c379a00000000000000000000000000000000000000000000000000000000081526004016123f490614225565b60405180910390fd5b5f83148061240e5750620f42408310155b61244d576040517f08c379a0000000000000000000000000000000000000000000000000000000008152600401612444906142b3565b60405180910390fd5b5f60015f8781526020019081526020015f20905060ff816005015f9054906101000a900460ff1660ff16146124b7576040517f08c379a00000000000000000000000000000000000000000000000000000000081526004016124ae9061431b565b60405180910390fd5b7f000000000000000000000000000000000000000000000000000000000000000073ffffffffffffffffffffffffffffffffffffffff166323b872dd3330856040518463ffffffff1660e01b815260040161251493929190614118565b6020604051808303815f875af1158015612530573d5f803e3d5ffd5b505050506040513d601f19601f820116820180604052508101906125549190613847565b612593576040517f08c379a000000000000000000000000000000000000000000000000000000000815260040161258a90614004565b60405180910390fd5b5f851115612669578460035f8881526020019081526020015f205f3373ffffffffffffffffffffffffffffffffffffffff1673ffffffffffffffffffffffffffffffffffffffff1681526020019081526020015f205f8282546125f69190613790565b9250508190555084816003015f8282546126109190613790565b925050819055503373ffffffffffffffffffffffffffffffffffffffff16867f4f1eed5e863a822b0f9eb960dfdab2cc5a99beec4b191f2a7a9c7e28e5a155245f88604051612660929190614372565b60405180910390a35b5f841115612740578360045f8881526020019081526020015f205f3373ffffffffffffffffffffffffffffffffffffffff1673ffffffffffffffffffffffffffffffffffffffff1681526020019081526020015f205f8282546126cc9190613790565b9250508190555083816004015f8282546126e69190613790565b925050819055503373ffffffffffffffffffffffffffffffffffffffff16867f4f1eed5e863a822b0f9eb960dfdab2cc5a99beec4b191f2a7a9c7e28e5a155246001876040516127379291906143d2565b60405180910390a35b505050505050565b620f424081565b5f5481565b6001602052805f5260405f205f91509050805f015490806001015490806002015490806003015490806004015490806005015f9054906101000a900460ff1690806006015490806007015f9054906101000a900460ff16905088565b7f000000000000000000000000000000000000000000000000000000000000000073ffffffffffffffffffffffffffffffffffffffff163373ffffffffffffffffffffffffffffffffffffffff16148061285557507f000000000000000000000000000000000000000000000000000000000000000073ffffffffffffffffffffffffffffffffffffffff163373ffffffffffffffffffffffffffffffffffffffff16145b612894576040517f08c379a000000000000000000000000000000000000000000000000000000000815260040161288b906134be565b60405180910390fd5b8060015f8281526020019081526020015f206007015f9054906101000a900460ff166128f5576040517f08c379a00000000000000000000000000000000000000000000000000000000081526004016128ec906136dd565b60405180910390fd5b5f60015f8481526020019081526020015f2090505f81600201541461294f576040517f08c379a000000000000000000000000000000000000000000000000000000000815260040161294690614443565b60405180910390fd5b5f816003015414801561296557505f8160040154145b6129a4576040517f08c379a000000000000000000000000000000000000000000000000000000000815260040161299b906144ab565b60405180910390fd5b5f816007015f6101000a81548160ff021916908315150217905550827f8208c3301e2b33ed01bd95b0317bf43fb2120df72b7406bef4ef4310b1bce5f060405160405180910390a2505050565b7f000000000000000000000000000000000000000000000000000000000000000081565b7f000000000000000000000000000000000000000000000000000000000000000073ffffffffffffffffffffffffffffffffffffffff163373ffffffffffffffffffffffffffffffffffffffff161480612aba57507f000000000000000000000000000000000000000000000000000000000000000073ffffffffffffffffffffffffffffffffffffffff163373ffffffffffffffffffffffffffffffffffffffff16145b612af9576040517f08c379a0000000000000000000000000000000000000000000000000000000008152600401612af0906134be565b60405180910390fd5b8260015f8281526020019081526020015f206007015f9054906101000a900460ff16612b5a576040517f08c379a0000000000000000000000000000000000000000000000000000000008152600401612b51906136dd565b60405180910390fd5b5f60015f8681526020019081526020015f2090505f816002015411612bb4576040517f08c379a0000000000000000000000000000000000000000000000000000000008152600401612bab90614513565b60405180910390fd5b5f8484905011612bf9576040517f08c379a0000000000000000000000000000000000000000000000000000000008152600401612bf0906145a1565b60405180910390fd5b5f5b84849050811015612e2d575f858583818110612c1a57612c19613763565b5b9050602002016020810190612c2f9190613117565b90505f60025f8981526020019081526020015f205f8373ffffffffffffffffffffffffffffffffffffffff1673ffffffffffffffffffffffffffffffffffffffff1681526020019081526020015f205490505f811115612e1e575f60025f8a81526020019081526020015f205f8473ffffffffffffffffffffffffffffffffffffffff1673ffffffffffffffffffffffffffffffffffffffff1681526020019081526020015f208190555080846002015f828254612ced91906137c3565b925050819055507f000000000000000000000000000000000000000000000000000000000000000073ffffffffffffffffffffffffffffffffffffffff1663a9059cbb83836040518363ffffffff1660e01b8152600401612d4f9291906137f6565b6020604051808303815f875af1158015612d6b573d5f803e3d5ffd5b505050506040513d601f19601f82011682018060405250810190612d8f9190613847565b612dce576040517f08c379a0000000000000000000000000000000000000000000000000000000008152600401612dc59061462f565b60405180910390fd5b8173ffffffffffffffffffffffffffffffffffffffff16887f9bf56934175280aa1916f0593e2fedd5a548b20ba9c49b69a768b794a87cdd2883604051612e159190612ee1565b60405180910390a35b50508080600101915050612bfb565b505050505050565b7f000000000000000000000000000000000000000000000000000000000000000081565b5f80fd5b5f80fd5b5f819050919050565b612e7381612e61565b8114612e7d575f80fd5b50565b5f81359050612e8e81612e6a565b92915050565b5f8060408385031215612eaa57612ea9612e59565b5b5f612eb785828601612e80565b9250506020612ec885828601612e80565b9150509250929050565b612edb81612e61565b82525050565b5f602082019050612ef45f830184612ed2565b92915050565b5f73ffffffffffffffffffffffffffffffffffffffff82169050919050565b5f612f2382612efa565b9050919050565b612f3381612f19565b8114612f3d575f80fd5b50565b5f81359050612f4e81612f2a565b92915050565b5f8060408385031215612f6a57612f69612e59565b5b5f612f7785828601612e80565b9250506020612f8885828601612f40565b9150509250929050565b612f9b81612f19565b82525050565b5f602082019050612fb45f830184612f92565b92915050565b5f80fd5b5f80fd5b5f80fd5b5f8083601f840112612fdb57612fda612fba565b5b8235905067ffffffffffffffff811115612ff857612ff7612fbe565b5b60208301915083602082028301111561301457613013612fc2565b5b9250929050565b5f805f6040848603121561303257613031612e59565b5b5f61303f86828701612e80565b935050602084013567ffffffffffffffff8111156130605761305f612e5d565b5b61306c86828701612fc6565b92509250509250925092565b5f6020828403121561308d5761308c612e59565b5b5f61309a84828501612e80565b91505092915050565b5f60ff82169050919050565b6130b8816130a3565b81146130c2575f80fd5b50565b5f813590506130d3816130af565b92915050565b5f80604083850312156130ef576130ee612e59565b5b5f6130fc85828601612e80565b925050602061310d858286016130c5565b9150509250929050565b5f6020828403121561312c5761312b612e59565b5b5f61313984828501612f40565b91505092915050565b5f81519050919050565b5f82825260208201905092915050565b5f819050602082019050919050565b61317481612e61565b82525050565b5f613185838361316b565b60208301905092915050565b5f602082019050919050565b5f6131a782613142565b6131b1818561314c565b93506131bc8361315c565b805f5b838110156131ec5781516131d3888261317a565b97506131de83613191565b9250506001810190506131bf565b5085935050505092915050565b5f6040820190508181035f830152613211818561319d565b90508181036020830152613225818461319d565b90509392505050565b5f8115159050919050565b6132428161322e565b82525050565b5f60808201905061325b5f830187612ed2565b6132686020830186612ed2565b6132756040830185612ed2565b6132826060830184613239565b95945050505050565b5f805f80608085870312156132a3576132a2612e59565b5b5f6132b087828801612e80565b94505060206132c187828801612e80565b93505060406132d287828801612e80565b92505060606132e387828801612e80565b91505092959194509250565b5f805f6060848603121561330657613305612e59565b5b5f61331386828701612e80565b935050602061332486828701612e80565b925050604061333586828701612e80565b9150509250925092565b613348816130a3565b82525050565b5f610100820190506133625f83018b612ed2565b61336f602083018a612ed2565b61337c6040830189612ed2565b6133896060830188612ed2565b6133966080830187612ed2565b6133a360a083018661333f565b6133b060c0830185612ed2565b6133bd60e0830184613239565b9998505050505050505050565b5f819050919050565b5f6133ed6133e86133e384612efa565b6133ca565b612efa565b9050919050565b5f6133fe826133d3565b9050919050565b5f61340f826133f4565b9050919050565b61341f81613405565b82525050565b5f6020820190506134385f830184613416565b92915050565b5f82825260208201905092915050565b7f4f6e6c792061646d696e206f722061646d696e5f6465762063616e2063616c6c5f8201527f20746869732066756e6374696f6e000000000000000000000000000000000000602082015250565b5f6134a8602e8361343e565b91506134b38261344e565b604082019050919050565b5f6020820190508181035f8301526134d58161349c565b9050919050565b7f4d696e696d756d20636f7374206d757374206265206174206c656173742031205f8201527f5553444300000000000000000000000000000000000000000000000000000000602082015250565b5f61353660248361343e565b9150613541826134dc565b604082019050919050565b5f6020820190508181035f8301526135638161352a565b9050919050565b7f4d6178696d756d20636f7374206d757374206265203e3d206d696e696d756d205f8201527f636f737400000000000000000000000000000000000000000000000000000000602082015250565b5f6135c460248361343e565b91506135cf8261356a565b604082019050919050565b5f6020820190508181035f8301526135f1816135b8565b9050919050565b7f4e487b71000000000000000000000000000000000000000000000000000000005f52601160045260245ffd5b5f61362f82612e61565b91507fffffffffffffffffffffffffffffffffffffffffffffffffffffffffffffffff8203613661576136606135f8565b5b600182019050919050565b5f60408201905061367f5f830185612ed2565b61368c6020830184612ed2565b9392505050565b7f4578706572696d656e7420697320636c6f7365640000000000000000000000005f82015250565b5f6136c760148361343e565b91506136d282613693565b602082019050919050565b5f6020820190508181035f8301526136f4816136bb565b9050919050565b7f4d7573742073706563696679206174206c65617374206f6e65207573657200005f82015250565b5f61372f601e8361343e565b915061373a826136fb565b602082019050919050565b5f6020820190508181035f83015261375c81613723565b9050919050565b7f4e487b71000000000000000000000000000000000000000000000000000000005f52603260045260245ffd5b5f61379a82612e61565b91506137a583612e61565b92508282019050808211156137bd576137bc6135f8565b5b92915050565b5f6137cd82612e61565b91506137d883612e61565b92508282039050818111156137f0576137ef6135f8565b5b92915050565b5f6040820190506138095f830185612f92565b6138166020830184612ed2565b9392505050565b6138268161322e565b8114613830575f80fd5b50565b5f815190506138418161381d565b92915050565b5f6020828403121561385c5761385b612e59565b5b5f61386984828501613833565b91505092915050565b7f5472616e73666572206661696c656400000000000000000000000000000000005f82015250565b5f6138a6600f8361343e565b91506138b182613872565b602082019050919050565b5f6020820190508181035f8301526138d38161389a565b9050919050565b7f526573756c74206e6f74207365740000000000000000000000000000000000005f82015250565b5f61390e600e8361343e565b9150613919826138da565b602082019050919050565b5f6020820190508181035f83015261393b81613902565b9050919050565b7f4e6f2077696e6e696e67206265740000000000000000000000000000000000005f82015250565b5f613976600e8361343e565b915061398182613942565b602082019050919050565b5f6020820190508181035f8301526139a38161396a565b9050919050565b5f6139b482612e61565b91506139bf83612e61565b92508282026139cd81612e61565b915082820484148315176139e4576139e36135f8565b5b5092915050565b7f4e487b71000000000000000000000000000000000000000000000000000000005f52601260045260245ffd5b5f613a2282612e61565b9150613a2d83612e61565b925082613a3d57613a3c6139eb565b5b828204905092915050565b7f4f6e6c792061646d696e2063616e2063616c6c20746869732066756e6374696f5f8201527f6e00000000000000000000000000000000000000000000000000000000000000602082015250565b5f613aa260218361343e565b9150613aad82613a48565b604082019050919050565b5f6020820190508181035f830152613acf81613a96565b9050919050565b7f496e76616c696420726573756c740000000000000000000000000000000000005f82015250565b5f613b0a600e8361343e565b9150613b1582613ad6565b602082019050919050565b5f6020820190508181035f830152613b3781613afe565b9050919050565b7f4578706572696d656e74206973206e6f7420636c6f73656400000000000000005f82015250565b5f613b7260188361343e565b9150613b7d82613b3e565b602082019050919050565b5f6020820190508181035f830152613b9f81613b66565b9050919050565b7f526573756c7420616c72656164792073657400000000000000000000000000005f82015250565b5f613bda60128361343e565b9150613be582613ba6565b602082019050919050565b5f6020820190508181035f830152613c0781613bce565b9050919050565b7f4e6f206265747320706c616365640000000000000000000000000000000000005f82015250565b5f613c42600e8361343e565b9150613c4d82613c0e565b602082019050919050565b5f6020820190508181035f830152613c6f81613c36565b9050919050565b7f57696e6e696e67207369646520686173206e6f206265747300000000000000005f82015250565b5f613caa60188361343e565b9150613cb582613c76565b602082019050919050565b5f6020820190508181035f830152613cd781613c9e565b9050919050565b5f602082019050613cf15f83018461333f565b92915050565b7f4e487b71000000000000000000000000000000000000000000000000000000005f52604160045260245ffd5b7f4d757374207761697420393020646179730000000000000000000000000000005f82015250565b5f613d5860118361343e565b9150613d6382613d24565b602082019050919050565b5f6020820190508181035f830152613d8581613d4c565b9050919050565b7f4e6f206265747320746f207769746864726177000000000000000000000000005f82015250565b5f613dc060138361343e565b9150613dcb82613d8c565b602082019050919050565b5f6020820190508181035f830152613ded81613db4565b9050919050565b7f4e6f2066756e647320746f2077697468647261770000000000000000000000005f82015250565b5f613e2860148361343e565b9150613e3382613df4565b602082019050919050565b5f6020820190508181035f830152613e5581613e1c565b9050919050565b7f4d696e696d756d20636f737420686173206e6f74206265656e207265616368655f8201527f6400000000000000000000000000000000000000000000000000000000000000602082015250565b5f613eb660218361343e565b9150613ec182613e5c565b604082019050919050565b5f6020820190508181035f830152613ee381613eaa565b9050919050565b7f546f6b656e207472616e7366657220746f2061646d696e206661696c656400005f82015250565b5f613f1e601e8361343e565b9150613f2982613eea565b602082019050919050565b5f6020820190508181035f830152613f4b81613f12565b9050919050565b7f4e6f206465706f7369747320746f2077697468647261770000000000000000005f82015250565b5f613f8660178361343e565b9150613f9182613f52565b602082019050919050565b5f6020820190508181035f830152613fb381613f7a565b9050919050565b7f546f6b656e207472616e73666572206661696c656400000000000000000000005f82015250565b5f613fee60158361343e565b9150613ff982613fba565b602082019050919050565b5f6020820190508181035f83015261401b81613fe2565b9050919050565b7f4465706f736974206d757374206265206174206c6561737420312055534443005f82015250565b5f614056601f8361343e565b915061406182614022565b602082019050919050565b5f6020820190508181035f8301526140838161404a565b9050919050565b7f4465706f73697420776f756c6420657863656564206d6178696d756d20636f735f8201527f7400000000000000000000000000000000000000000000000000000000000000602082015250565b5f6140e460218361343e565b91506140ef8261408a565b604082019050919050565b5f6020820190508181035f830152614111816140d8565b9050919050565b5f60608201905061412b5f830186612f92565b6141386020830185612f92565b6141456040830184612ed2565b949350505050565b7f4d75737420626574206f6e206174206c65617374206f6e65206f7574636f6d655f82015250565b5f61418160208361343e565b915061418c8261414d565b602082019050919050565b5f6020820190508181035f8301526141ae81614175565b9050919050565b7f426574206f6e206f7574636f6d652030206d7573742062652030206f722061745f8201527f206c656173742031205553444300000000000000000000000000000000000000602082015250565b5f61420f602d8361343e565b915061421a826141b5565b604082019050919050565b5f6020820190508181035f83015261423c81614203565b9050919050565b7f426574206f6e206f7574636f6d652031206d7573742062652030206f722061745f8201527f206c656173742031205553444300000000000000000000000000000000000000602082015250565b5f61429d602d8361343e565b91506142a882614243565b604082019050919050565b5f6020820190508181035f8301526142ca81614291565b9050919050565b7f42657474696e6720636c6f7365640000000000000000000000000000000000005f82015250565b5f614305600e8361343e565b9150614310826142d1565b602082019050919050565b5f6020820190508181035f830152614332816142f9565b9050919050565b5f819050919050565b5f61435c61435761435284614339565b6133ca565b6130a3565b9050919050565b61436c81614342565b82525050565b5f6040820190506143855f830185614363565b6143926020830184612ed2565b9392505050565b5f819050919050565b5f6143bc6143b76143b284614399565b6133ca565b6130a3565b9050919050565b6143cc816143a2565b82525050565b5f6040820190506143e55f8301856143c3565b6143f26020830184612ed2565b9392505050565b7f4d7573742072657475726e20616c6c206465706f7369747320666972737400005f82015250565b5f61442d601e8361343e565b9150614438826143f9565b602082019050919050565b5f6020820190508181035f83015261445a81614421565b9050919050565b7f4d7573742072657475726e20616c6c20626574732066697273740000000000005f82015250565b5f614495601a8361343e565b91506144a082614461565b602082019050919050565b5f6020820190508181035f8301526144c281614489565b9050919050565b7f4e6f2066756e647320746f2072657475726e00000000000000000000000000005f82015250565b5f6144fd60128361343e565b9150614508826144c9565b602082019050919050565b5f6020820190508181035f83015261452a816144f1565b9050919050565b7f4d7573742073706563696679206174206c65617374206f6e65206465706f73695f8201527f746f720000000000000000000000000000000000000000000000000000000000602082015250565b5f61458b60238361343e565b915061459682614531565b604082019050919050565b5f6020820190508181035f8301526145b88161457f565b9050919050565b7f546f6b656e207472616e7366657220746f206465706f7369746f72206661696c5f8201527f6564000000000000000000000000000000000000000000000000000000000000602082015250565b5f61461960228361343e565b9150614624826145bf565b604082019050919050565b5f6020820190508181035f8301526146468161460d565b905091905056fea2646970667358221220ca20fe1916f6a75499a98e7778fcc16f3a57731da50b86a1f129ded4047980cb64736f6c634300081a0033","linkReferences":{}},"methodIdentifiers":{"MIN_AMOUNT()":"ddbcb5fa","admin()":"f851a440","adminClose(uint256)":"f229be81","adminCreateExperiment(uint256,uint256)":"00c62450","adminRefund(uint256,address[])":"f9a3be04","adminReturnBet(uint256,address[])":"410fa4f3","adminSetResult(uint256,uint8)":"4932d87d","adminWithdraw(uint256)":"7c5b4a37","admin_dev()":"2504d63a","bets0(uint256,address)":"869df59c","bets1(uint256,address)":"10b81915","deposits(uint256,address)":"53a58de1","experiments(uint256)":"eb4706b5","getExperimentInfo(uint256)":"95003a0f","getUserDeposit(uint256,address)":"4e055244","getUserExperiments(address)":"5fe3c8ed","nextExperimentId()":"e40b1e31","token()":"fc0c546a","userBet(uint256,uint256,uint256)":"d53a36cb","userClaimBetProfit(uint256)":"47593352","userDeposit(uint256,uint256)":"c4164274","userFundAndBet(uint256,uint256,uint256,uint256)":"b4e94f7a","userUnbet(uint256)":"718eeffc","userUndeposit(uint256)":"924020b4"},"id":16}