{"abi":[{"type":"constructor","inputs":[{"name":"_admin","type":"address","internalType":"address"},{"name":"_admin_dev","type":"address","internalType":"address"},{"name":"_token","type":"address","internalType":"address"}],"stateMutability":"nonpayable"},{"type":"function","name":"MIN_AMOUNT","inputs":[],"outputs":[{"name":"","type":"uint256","internalType":"uint256"}],"stateMutability":"view"},{"type":"function","name":"admin","inputs":[],"outputs":[{"name":"","type":"address","internalType":"address"}],"stateMutability":"view"},{"type":"function","name":"adminClose","inputs":[{"name":"experimentId","type":"uint256","internalType":"uint256"}],"outputs":[],"stateMutability":"nonpayable"},{"type":"function","name":"adminCreateExperiment","inputs":[{"name":"costMin","type":"uint256","internalType":"uint256"},{"name":"costMax","type":"uint256","internalType":"uint256"}],"outputs":[{"name":"","type":"uint256","internalType":"uint256"}],"stateMutability":"nonpayable"},{"type":"function","name":"adminRefund","inputs":[{"name":"experimentId","type":"uint256","internalType":"uint256"},{"name":"depositors","type":"address[]","internalType":"address[]"}],"outputs":[],"stateMutability":"nonpayable"},{"type":"function","name":"adminReturnBet","inputs":[{"name":"experimentId","type":"uint256","internalType":"uint256"},{"name":"users","type":"address[]","internalType":"address[]"}],"outputs":[],"stateMutability":"nonpayable"},{"type":"function","name":"adminSetResult","inputs":[{"name":"experimentId","type":"uint256","internalType":"uint256"},{"name":"result","type":"uint8","internalType":"uint8"}],"outputs":[],"stateMutability":"nonpayable"},{"type":"function","name":"adminWithdraw","inputs":[{"name":"experimentId","type":"uint256","internalType":"uint256"}],"outputs":[],"stateMutability":"nonpayable"},{"type":"function","name":"admin_dev","inputs":[],"outputs":[{"name":"","type":"address","internalType":"address"}],"stateMutability":"view"},{"type":"function","name":"bets0","inputs":[{"name":"","type":"uint256","internalType":"uint256"},{"name":"","type":"address","internalType":"address"}],"outputs":[{"name":"","type":"uint256","internalType":"uint256"}],"stateMutability":"view"},{"type":"function","name":"bets1","inputs":[{"name":"","type":"uint256","internalType":"uint256"},{"name":"","type":"address","internalType":"address"}],"outputs":[{"name":"","type":"uint256","internalType":"uint256"}],"stateMutability":"view"},{"type":"function","name":"deposits","inputs":[{"name":"","type":"uint256","internalType":"uint256"},{"name":"","type":"address","internalType":"address"}],"outputs":[{"name":"","type":"uint256","internalType":"uint256"}],"stateMutability":"view"},{"type":"function","name":"experiments","inputs":[{"name":"","type":"uint256","internalType":"uint256"}],"outputs":[{"name":"costMin","type":"uint256","internalType":"uint256"},{"name":"costMax","type":"uint256","internalType":"uint256"},{"name":"totalDeposited","type":"uint256","internalType":"uint256"},{"name":"totalBet0","type":"uint256","internalType":"uint256"},{"name":"totalBet1","type":"uint256","internalType":"uint256"},{"name":"experimentCreatedAt","type":"uint256","internalType":"uint256"},{"name":"bettingOutcome","type":"uint8","internalType":"uint8"},{"name":"open","type":"bool","internalType":"bool"}],"stateMutability":"view"},{"type":"function","name":"getExperimentInfo","inputs":[{"name":"experimentId","type":"uint256","internalType":"uint256"}],"outputs":[{"name":"costMin","type":"uint256","internalType":"uint256"},{"name":"costMax","type":"uint256","internalType":"uint256"},{"name":"totalDeposited","type":"uint256","internalType":"uint256"},{"name":"totalBet0","type":"uint256","internalType":"uint256"},{"name":"totalBet1","type":"uint256","internalType":"uint256"},{"name":"open","type":"bool","internalType":"bool"}],"stateMutability":"view"},{"type":"function","name":"getUserExperiments","inputs":[{"name":"user","type":"address","internalType":"address"}],"outputs":[{"name":"experimentIds","type":"uint256[]","internalType":"uint256[]"},{"name":"depositAmounts","type":"uint256[]","internalType":"uint256[]"}],"stateMutability":"view"},{"type":"function","name":"getUserPosition","inputs":[{"name":"experimentId","type":"uint256","internalType":"uint256"},{"name":"user","type":"address","internalType":"address"}],"outputs":[{"name":"depositAmount","type":"uint256","internalType":"uint256"},{"name":"betAmount0","type":"uint256","internalType":"uint256"},{"name":"betAmount1","type":"uint256","internalType":"uint256"}],"stateMutability":"view"},{"type":"function","name":"nextExperimentId","inputs":[],"outputs":[{"name":"","type":"uint256","internalType":"uint256"}],"stateMutability":"view"},{"type":"function","name":"token","inputs":[],"outputs":[{"name":"","type":"address","internalType":"contract IERC20"}],"stateMutability":"view"},{"type":"function","name":"userBet","inputs":[{"name":"experimentId","type":"uint256","internalType":"uint256"},{"name":"betAmount0","type":"uint256","internalType":"uint256"},{"name":"betAmount1","type":"uint256","internalType":"uint256"}],"outputs":[],"stateMutability":"nonpayable"},{"type":"function","name":"userClaimBetProfit","inputs":[{"name":"experimentId","type":"uint256","internalType":"uint256"}],"outputs":[],"stateMutability":"nonpayable"},{"type":"function","name":"userDeposit","inputs":[{"name":"experimentId","type":"uint256","internalType":"uint256"},{"name":"amount","type":"uint256","internalType":"uint256"}],"outputs":[],"stateMutability":"nonpayable"},{"type":"function","name":"userFundAndBet","inputs":[{"name":"experimentId","type":"uint256","internalType":"uint256"},{"name":"fundAmount","type":"uint256","internalType":"uint256"},{"name":"betAmount0","type":"uint256","internalType":"uint256"},{"name":"betAmount1","type":"uint256","internalType":"uint256"}],"outputs":[],"stateMutability":"nonpayable"},{"type":"function","name":"userUnbet","inputs":[{"name":"experimentId","type":"uint256","internalType":"uint256"}],"outputs":[],"stateMutability":"nonpayable"},{"type":"function","name":"userUndeposit","inputs":[{"name":"experimentId","type":"uint256","internalType":"uint256"}],"outputs":[],"stateMutability":"nonpayable"},{"type":"event","name":"AdminClose","inputs":[{"name":"experimentId","type":"uint256","indexed":true,"internalType":"uint256"}],"anonymous":false},{"type":"event","name":"AdminWithdraw","inputs":[{"name":"experimentId","type":"uint256","indexed":true,"internalType":"uint256"},{"name":"amount","type":"uint256","indexed":false,"internalType":"uint256"}],"anonymous":false},{"type":"event","name":"BetPlaced","inputs":[{"name":"experimentId","type":"uint256","indexed":true,"internalType":"uint256"},{"name":"bettor","type":"address","indexed":true,"internalType":"address"},{"name":"outcome","type":"uint8","indexed":false,"internalType":"uint8"},{"name":"amount","type":"uint256","indexed":false,"internalType":"uint256"}],"anonymous":false},{"type":"event","name":"BetProfitClaimed","inputs":[{"name":"experimentId","type":"uint256","indexed":true,"internalType":"uint256"},{"name":"winner","type":"address","indexed":true,"internalType":"address"},{"name":"payout","type":"uint256","indexed":false,"internalType":"uint256"}],"anonymous":false},{"type":"event","name":"BetReturned","inputs":[{"name":"experimentId","type":"uint256","indexed":true,"internalType":"uint256"},{"name":"bettor","type":"address","indexed":true,"internalType":"address"},{"name":"amount","type":"uint256","indexed":false,"internalType":"uint256"}],"anonymous":false},{"type":"event","name":"Deposited","inputs":[{"name":"experimentId","type":"uint256","indexed":true,"internalType":"uint256"},{"name":"depositor","type":"address","indexed":true,"internalType":"address"},{"name":"amount","type":"uint256","indexed":false,"internalType":"uint256"}],"anonymous":false},{"type":"event","name":"ExperimentCreated","inputs":[{"name":"experimentId","type":"uint256","indexed":true,"internalType":"uint256"},{"name":"costMin","type":"uint256","indexed":false,"internalType":"uint256"},{"name":"costMax","type":"uint256","indexed":false,"internalType":"uint256"}],"anonymous":false},{"type":"event","name":"ResultSet","inputs":[{"name":"experimentId","type":"uint256","indexed":true,"internalType":"uint256"},{"name":"result","type":"uint8","indexed":false,"internalType":"uint8"}],"anonymous":false},{"type":"event","name":"Undeposited","inputs":[{"name":"experimentId","type":"uint256","indexed":true,"internalType":"uint256"},{"name":"depositor","type":"address","indexed":true,"internalType":"address"},{"name":"amount","type":"uint256","indexed":false,"internalType":"uint256"}],"anonymous":false}],"bytecode":{"object":"0x60e060405234801561000f575f80fd5b50604051614c62380380614c6283398181016040528101906100319190610283565b5f73ffffffffffffffffffffffffffffffffffffffff168373ffffffffffffffffffffffffffffffffffffffff160361009f576040517f08c379a00000000000000000000000000000000000000000000000000000000081526004016100969061032d565b60405180910390fd5b5f73ffffffffffffffffffffffffffffffffffffffff168273ffffffffffffffffffffffffffffffffffffffff160361010d576040517f08c379a000000000000000000000000000000000000000000000000000000000815260040161010490610395565b60405180910390fd5b5f73ffffffffffffffffffffffffffffffffffffffff168173ffffffffffffffffffffffffffffffffffffffff160361017b576040517f08c379a0000000000000000000000000000000000000000000000000000000008152600401610172906103fd565b60405180910390fd5b8273ffffffffffffffffffffffffffffffffffffffff1660808173ffffffffffffffffffffffffffffffffffffffff16815250508173ffffffffffffffffffffffffffffffffffffffff1660a08173ffffffffffffffffffffffffffffffffffffffff16815250508073ffffffffffffffffffffffffffffffffffffffff1660c08173ffffffffffffffffffffffffffffffffffffffff16815250505f808190555050505061041b565b5f80fd5b5f73ffffffffffffffffffffffffffffffffffffffff82169050919050565b5f61025282610229565b9050919050565b61026281610248565b811461026c575f80fd5b50565b5f8151905061027d81610259565b92915050565b5f805f6060848603121561029a57610299610225565b5b5f6102a78682870161026f565b93505060206102b88682870161026f565b92505060406102c98682870161026f565b9150509250925092565b5f82825260208201905092915050565b7f41646d696e20616464726573732063616e6e6f74206265207a65726f000000005f82015250565b5f610317601c836102d3565b9150610322826102e3565b602082019050919050565b5f6020820190508181035f8301526103448161030b565b9050919050565b7f41646d696e5f64657620616464726573732063616e6e6f74206265207a65726f5f82015250565b5f61037f6020836102d3565b915061038a8261034b565b602082019050919050565b5f6020820190508181035f8301526103ac81610373565b9050919050565b7f546f6b656e20616464726573732063616e6e6f74206265207a65726f000000005f82015250565b5f6103e7601c836102d3565b91506103f2826103b3565b602082019050919050565b5f6020820190508181035f830152610414816103db565b9050919050565b60805160a05160c0516147986104ca5f395f8181610b1b01528181610f5e0152818161183e01528181611b2f01528181611f3d0152818161220f0152818161257901528181612dba0152612efb01525f818161050a015281816107220152818161079b015281816128c80152612b2f01525f81816104b5015281816107460152818161108c0152818161196e01528181611b6b0152818161287301528181612ab60152612ada01526147985ff3fe608060405234801561000f575f80fd5b5060043610610155575f3560e01c8063924020b4116100c1578063e40b1e311161007a578063e40b1e31146103e9578063eb4706b514610407578063f229be811461043e578063f851a4401461045a578063f9a3be0414610478578063fc0c546a1461049457610155565b8063924020b41461032657806395003a0f14610342578063b4e94f7a14610377578063c416427414610393578063d53a36cb146103af578063ddbcb5fa146103cb57610155565b806353a58de11161011357806353a58de11461022b5780635fe3c8ed1461025b578063718eeffc1461028c5780637c5b4a37146102a8578063869da9db146102c4578063869df59c146102f657610155565b8062c624501461015957806310b81915146101895780632504d63a146101b9578063410fa4f3146101d757806347593352146101f35780634932d87d1461020f575b5f80fd5b610173600480360381019061016e9190612f58565b6104b2565b6040516101809190612fa5565b60405180910390f35b6101a3600480360381019061019e9190613018565b610700565b6040516101b09190612fa5565b60405180910390f35b6101c1610720565b6040516101ce9190613065565b60405180910390f35b6101f160048036038101906101ec91906130df565b610744565b005b61020d6004803603810190610208919061313c565b610ca9565b005b6102296004803603810190610224919061319d565b61108a565b005b61024560048036038101906102409190613018565b611370565b6040516102529190612fa5565b60405180910390f35b610275600480360381019061027091906131db565b611390565b6040516102839291906132bd565b60405180910390f35b6102a660048036038101906102a1919061313c565b6115b6565b005b6102c260048036038101906102bd919061313c565b61196c565b005b6102de60048036038101906102d99190613018565b611c65565b6040516102ed939291906132f2565b60405180910390f35b610310600480360381019061030b9190613018565b611d5c565b60405161031d9190612fa5565b60405180910390f35b610340600480360381019061033b919061313c565b611d7c565b005b61035c6004803603810190610357919061313c565b61206a565b60405161036e96959493929190613341565b60405180910390f35b610391600480360381019061038c91906133a0565b6120c4565b005b6103ad60048036038101906103a89190612f58565b6120fb565b005b6103c960048036038101906103c49190613404565b6123ba565b005b6103d3612808565b6040516103e09190612fa5565b60405180910390f35b6103f161280f565b6040516103fe9190612fa5565b60405180910390f35b610421600480360381019061041c919061313c565b612814565b604051610435989796959493929190613463565b60405180910390f35b6104586004803603810190610453919061313c565b612871565b005b610462612ab4565b60405161046f9190613065565b60405180910390f35b610492600480360381019061048d91906130df565b612ad8565b005b61049c612ef9565b6040516104a9919061353a565b60405180910390f35b5f7f000000000000000000000000000000000000000000000000000000000000000073ffffffffffffffffffffffffffffffffffffffff163373ffffffffffffffffffffffffffffffffffffffff16148061055857507f000000000000000000000000000000000000000000000000000000000000000073ffffffffffffffffffffffffffffffffffffffff163373ffffffffffffffffffffffffffffffffffffffff16145b610597576040517f08c379a000000000000000000000000000000000000000000000000000000000815260040161058e906135d3565b60405180910390fd5b620f42408310156105dd576040517f08c379a00000000000000000000000000000000000000000000000000000000081526004016105d490613661565b60405180910390fd5b82821015610620576040517f08c379a0000000000000000000000000000000000000000000000000000000008152600401610617906136ef565b60405180910390fd5b5f805f8154809291906106329061373a565b9190505590505f60015f8381526020019081526020015f20905084815f01819055508381600101819055505f81600201819055505f81600301819055505f816004018190555060ff816006015f6101000a81548160ff021916908360ff16021790555042816005018190555060018160060160016101000a81548160ff021916908315150217905550817fa50648571e1c813a4bcc3aa4af6facdda67d632aee011898c3b4156f630abbd186866040516106ed929190613781565b60405180910390a2819250505092915050565b6004602052815f5260405f20602052805f5260405f205f91509150505481565b7f000000000000000000000000000000000000000000000000000000000000000081565b7f000000000000000000000000000000000000000000000000000000000000000073ffffffffffffffffffffffffffffffffffffffff163373ffffffffffffffffffffffffffffffffffffffff1614806107e957507f000000000000000000000000000000000000000000000000000000000000000073ffffffffffffffffffffffffffffffffffffffff163373ffffffffffffffffffffffffffffffffffffffff16145b610828576040517f08c379a000000000000000000000000000000000000000000000000000000000815260040161081f906135d3565b60405180910390fd5b8260015f8281526020019081526020015f2060060160019054906101000a900460ff1661088a576040517f08c379a0000000000000000000000000000000000000000000000000000000008152600401610881906137f2565b60405180910390fd5b5f60015f8681526020019081526020015f2090505f84849050116108e3576040517f08c379a00000000000000000000000000000000000000000000000000000000081526004016108da9061385a565b60405180910390fd5b5f5b84849050811015610ca1575f60035f8881526020019081526020015f205f87878581811061091657610915613878565b5b905060200201602081019061092b91906131db565b73ffffffffffffffffffffffffffffffffffffffff1673ffffffffffffffffffffffffffffffffffffffff1681526020019081526020015f205490505f60045f8981526020019081526020015f205f88888681811061098d5761098c613878565b5b90506020020160208101906109a291906131db565b73ffffffffffffffffffffffffffffffffffffffff1673ffffffffffffffffffffffffffffffffffffffff1681526020019081526020015f205490505f81836109eb91906138a5565b90505f811115610c91575f60035f8b81526020019081526020015f205f8a8a88818110610a1b57610a1a613878565b5b9050602002016020810190610a3091906131db565b73ffffffffffffffffffffffffffffffffffffffff1673ffffffffffffffffffffffffffffffffffffffff1681526020019081526020015f20819055505f60045f8b81526020019081526020015f205f8a8a88818110610a9357610a92613878565b5b9050602002016020810190610aa891906131db565b73ffffffffffffffffffffffffffffffffffffffff1673ffffffffffffffffffffffffffffffffffffffff1681526020019081526020015f208190555082856003015f828254610af891906138d8565b9250508190555081856004015f828254610b1291906138d8565b925050819055507f000000000000000000000000000000000000000000000000000000000000000073ffffffffffffffffffffffffffffffffffffffff1663a9059cbb898987818110610b6857610b67613878565b5b9050602002016020810190610b7d91906131db565b836040518363ffffffff1660e01b8152600401610b9b92919061390b565b6020604051808303815f875af1158015610bb7573d5f803e3d5ffd5b505050506040513d601f19601f82011682018060405250810190610bdb919061395c565b610c1a576040517f08c379a0000000000000000000000000000000000000000000000000000000008152600401610c11906139d1565b60405180910390fd5b878785818110610c2d57610c2c613878565b5b9050602002016020810190610c4291906131db565b73ffffffffffffffffffffffffffffffffffffffff16897f757db202439744d74cb7a1a6abc7549f4a49e7efba6f870c33e2bf48ef343cb383604051610c889190612fa5565b60405180910390a35b50505080806001019150506108e5565b505050505050565b5f60015f8381526020019081526020015f20905060ff816006015f9054906101000a900460ff1660ff1603610d13576040517f08c379a0000000000000000000000000000000000000000000000000000000008152600401610d0a90613a39565b60405180910390fd5b5f80826006015f9054906101000a900460ff1660ff1603610e47575f60035f8581526020019081526020015f205f3373ffffffffffffffffffffffffffffffffffffffff1673ffffffffffffffffffffffffffffffffffffffff1681526020019081526020015f205490505f8111610dc0576040517f08c379a0000000000000000000000000000000000000000000000000000000008152600401610db790613aa1565b60405180910390fd5b826003015483600401548460030154610dd991906138a5565b82610de49190613abf565b610dee9190613b2d565b91505f60035f8681526020019081526020015f205f3373ffffffffffffffffffffffffffffffffffffffff1673ffffffffffffffffffffffffffffffffffffffff1681526020019081526020015f208190555050610f5c565b5f60045f8581526020019081526020015f205f3373ffffffffffffffffffffffffffffffffffffffff1673ffffffffffffffffffffffffffffffffffffffff1681526020019081526020015f205490505f8111610ed9576040517f08c379a0000000000000000000000000000000000000000000000000000000008152600401610ed090613aa1565b60405180910390fd5b826004015483600401548460030154610ef291906138a5565b82610efd9190613abf565b610f079190613b2d565b91505f60045f8681526020019081526020015f205f3373ffffffffffffffffffffffffffffffffffffffff1673ffffffffffffffffffffffffffffffffffffffff1681526020019081526020015f2081905550505b7f000000000000000000000000000000000000000000000000000000000000000073ffffffffffffffffffffffffffffffffffffffff1663a9059cbb33836040518363ffffffff1660e01b8152600401610fb792919061390b565b6020604051808303815f875af1158015610fd3573d5f803e3d5ffd5b505050506040513d601f19601f82011682018060405250810190610ff7919061395c565b611036576040517f08c379a000000000000000000000000000000000000000000000000000000000815260040161102d906139d1565b60405180910390fd5b3373ffffffffffffffffffffffffffffffffffffffff16837f641d020f1a3109a6c79899ca76fbb17eb9c61c186657c48526cdb951e853aead8360405161107d9190612fa5565b60405180910390a3505050565b7f000000000000000000000000000000000000000000000000000000000000000073ffffffffffffffffffffffffffffffffffffffff163373ffffffffffffffffffffffffffffffffffffffff1614611118576040517f08c379a000000000000000000000000000000000000000000000000000000000815260040161110f90613bcd565b60405180910390fd5b5f8160ff16148061112c575060018160ff16145b61116b576040517f08c379a000000000000000000000000000000000000000000000000000000000815260040161116290613c35565b60405180910390fd5b5f60015f8481526020019081526020015f2090508060060160019054906101000a900460ff16156111d1576040517f08c379a00000000000000000000000000000000000000000000000000000000081526004016111c890613c9d565b60405180910390fd5b60ff816006015f9054906101000a900460ff1660ff1614611227576040517f08c379a000000000000000000000000000000000000000000000000000000000815260040161121e90613d05565b60405180910390fd5b5f8160030154118061123c57505f8160040154115b61127b576040517f08c379a000000000000000000000000000000000000000000000000000000000815260040161127290613d6d565b60405180910390fd5b5f8260ff16036112d0575f8160030154116112cb576040517f08c379a00000000000000000000000000000000000000000000000000000000081526004016112c290613dd5565b60405180910390fd5b611317565b5f816004015411611316576040517f08c379a000000000000000000000000000000000000000000000000000000000815260040161130d90613dd5565b60405180910390fd5b5b81816006015f6101000a81548160ff021916908360ff160217905550827f96a72b23d1215cfbff54a1749ea932981d1fcff3f46592daf9331409cfbf7e3d836040516113639190613df3565b60405180910390a2505050565b6002602052815f5260405f20602052805f5260405f205f91509150505481565b6060805f805b5f5481101561140f575f60025f8381526020019081526020015f205f8773ffffffffffffffffffffffffffffffffffffffff1673ffffffffffffffffffffffffffffffffffffffff1681526020019081526020015f205411156114025781806113fe9061373a565b9250505b8080600101915050611396565b508067ffffffffffffffff81111561142a57611429613e0c565b5b6040519080825280602002602001820160405280156114585781602001602082028036833780820191505090505b5092508067ffffffffffffffff81111561147557611474613e0c565b5b6040519080825280602002602001820160405280156114a35781602001602082028036833780820191505090505b5091505f805b5f548110156115ae575f60025f8381526020019081526020015f205f8873ffffffffffffffffffffffffffffffffffffffff1673ffffffffffffffffffffffffffffffffffffffff1681526020019081526020015f205411156115a1578085838151811061151a57611519613878565b5b60200260200101818152505060025f8281526020019081526020015f205f8773ffffffffffffffffffffffffffffffffffffffff1673ffffffffffffffffffffffffffffffffffffffff1681526020019081526020015f205484838151811061158657611585613878565b5b602002602001018181525050818061159d9061373a565b9250505b80806001019150506114a9565b505050915091565b5f60015f8381526020019081526020015f2090506276a70081600501546115dd91906138a5565b42101561161f576040517f08c379a000000000000000000000000000000000000000000000000000000000815260040161161690613e83565b60405180910390fd5b60ff816006015f9054906101000a900460ff1660ff1614611675576040517f08c379a000000000000000000000000000000000000000000000000000000000815260040161166c90613d05565b60405180910390fd5b5f60035f8481526020019081526020015f205f3373ffffffffffffffffffffffffffffffffffffffff1673ffffffffffffffffffffffffffffffffffffffff1681526020019081526020015f205490505f60045f8581526020019081526020015f205f3373ffffffffffffffffffffffffffffffffffffffff1673ffffffffffffffffffffffffffffffffffffffff1681526020019081526020015f205490505f818361172291906138a5565b90505f8111611766576040517f08c379a000000000000000000000000000000000000000000000000000000000815260040161175d90613eeb565b60405180910390fd5b5f60035f8781526020019081526020015f205f3373ffffffffffffffffffffffffffffffffffffffff1673ffffffffffffffffffffffffffffffffffffffff1681526020019081526020015f20819055505f60045f8781526020019081526020015f205f3373ffffffffffffffffffffffffffffffffffffffff1673ffffffffffffffffffffffffffffffffffffffff1681526020019081526020015f208190555082846003015f82825461181b91906138d8565b9250508190555081846004015f82825461183591906138d8565b925050819055507f000000000000000000000000000000000000000000000000000000000000000073ffffffffffffffffffffffffffffffffffffffff1663a9059cbb33836040518363ffffffff1660e01b815260040161189792919061390b565b6020604051808303815f875af11580156118b3573d5f803e3d5ffd5b505050506040513d601f19601f820116820180604052508101906118d7919061395c565b611916576040517f08c379a000000000000000000000000000000000000000000000000000000000815260040161190d906139d1565b60405180910390fd5b3373ffffffffffffffffffffffffffffffffffffffff16857f757db202439744d74cb7a1a6abc7549f4a49e7efba6f870c33e2bf48ef343cb38360405161195d9190612fa5565b60405180910390a35050505050565b7f000000000000000000000000000000000000000000000000000000000000000073ffffffffffffffffffffffffffffffffffffffff163373ffffffffffffffffffffffffffffffffffffffff16146119fa576040517f08c379a00000000000000000000000000000000000000000000000000000000081526004016119f190613bcd565b60405180910390fd5b8060015f8281526020019081526020015f2060060160019054906101000a900460ff16611a5c576040517f08c379a0000000000000000000000000000000000000000000000000000000008152600401611a53906137f2565b60405180910390fd5b5f60015f8481526020019081526020015f2090505f816002015411611ab6576040517f08c379a0000000000000000000000000000000000000000000000000000000008152600401611aad90613f53565b60405180910390fd5b805f015481600201541015611b00576040517f08c379a0000000000000000000000000000000000000000000000000000000008152600401611af790613fe1565b60405180910390fd5b5f816002015490505f82600201819055505f8260060160016101000a81548160ff0219169083151502179055507f000000000000000000000000000000000000000000000000000000000000000073ffffffffffffffffffffffffffffffffffffffff1663a9059cbb7f0000000000000000000000000000000000000000000000000000000000000000836040518363ffffffff1660e01b8152600401611ba892919061390b565b6020604051808303815f875af1158015611bc4573d5f803e3d5ffd5b505050506040513d601f19601f82011682018060405250810190611be8919061395c565b611c27576040517f08c379a0000000000000000000000000000000000000000000000000000000008152600401611c1e90614049565b60405180910390fd5b837f94ebb62a252249c867ecb758d386f50a95be7e8df9e1c52917c9cf494327dd7d82604051611c579190612fa5565b60405180910390a250505050565b5f805f60025f8681526020019081526020015f205f8573ffffffffffffffffffffffffffffffffffffffff1673ffffffffffffffffffffffffffffffffffffffff1681526020019081526020015f205460035f8781526020019081526020015f205f8673ffffffffffffffffffffffffffffffffffffffff1673ffffffffffffffffffffffffffffffffffffffff1681526020019081526020015f205460045f8881526020019081526020015f205f8773ffffffffffffffffffffffffffffffffffffffff1673ffffffffffffffffffffffffffffffffffffffff1681526020019081526020015f20549250925092509250925092565b6003602052815f5260405f20602052805f5260405f205f91509150505481565b8060015f8281526020019081526020015f2060060160019054906101000a900460ff16611dde576040517f08c379a0000000000000000000000000000000000000000000000000000000008152600401611dd5906137f2565b60405180910390fd5b5f60015f8481526020019081526020015f2090505f60025f8581526020019081526020015f205f3373ffffffffffffffffffffffffffffffffffffffff1673ffffffffffffffffffffffffffffffffffffffff1681526020019081526020015f205411611e80576040517f08c379a0000000000000000000000000000000000000000000000000000000008152600401611e77906140b1565b60405180910390fd5b5f60025f8581526020019081526020015f205f3373ffffffffffffffffffffffffffffffffffffffff1673ffffffffffffffffffffffffffffffffffffffff1681526020019081526020015f205490505f60025f8681526020019081526020015f205f3373ffffffffffffffffffffffffffffffffffffffff1673ffffffffffffffffffffffffffffffffffffffff1681526020019081526020015f208190555080826002015f828254611f3491906138d8565b925050819055507f000000000000000000000000000000000000000000000000000000000000000073ffffffffffffffffffffffffffffffffffffffff1663a9059cbb33836040518363ffffffff1660e01b8152600401611f9692919061390b565b6020604051808303815f875af1158015611fb2573d5f803e3d5ffd5b505050506040513d601f19601f82011682018060405250810190611fd6919061395c565b612015576040517f08c379a000000000000000000000000000000000000000000000000000000000815260040161200c90614119565b60405180910390fd5b3373ffffffffffffffffffffffffffffffffffffffff16847f9bf56934175280aa1916f0593e2fedd5a548b20ba9c49b69a768b794a87cdd288360405161205c9190612fa5565b60405180910390a350505050565b5f805f805f805f60015f8981526020019081526020015f209050805f015481600101548260020154836003015484600401548560060160019054906101000a900460ff169650965096509650965096505091939550919395565b5f8311156120d7576120d684846120fb565b5b5f8211806120e457505f81115b156120f5576120f48483836123ba565b5b50505050565b8160015f8281526020019081526020015f2060060160019054906101000a900460ff1661215d576040517f08c379a0000000000000000000000000000000000000000000000000000000008152600401612154906137f2565b60405180910390fd5b620f42408210156121a3576040517f08c379a000000000000000000000000000000000000000000000000000000000815260040161219a90614181565b60405180910390fd5b5f60015f8581526020019081526020015f20905080600101548382600201546121cc91906138a5565b111561220d576040517f08c379a00000000000000000000000000000000000000000000000000000000081526004016122049061420f565b60405180910390fd5b7f000000000000000000000000000000000000000000000000000000000000000073ffffffffffffffffffffffffffffffffffffffff166323b872dd3330866040518463ffffffff1660e01b815260040161226a9392919061422d565b6020604051808303815f875af1158015612286573d5f803e3d5ffd5b505050506040513d601f19601f820116820180604052508101906122aa919061395c565b6122e9576040517f08c379a00000000000000000000000000000000000000000000000000000000081526004016122e090614119565b60405180910390fd5b8260025f8681526020019081526020015f205f3373ffffffffffffffffffffffffffffffffffffffff1673ffffffffffffffffffffffffffffffffffffffff1681526020019081526020015f205f82825461234491906138a5565b9250508190555082816002015f82825461235e91906138a5565b925050819055503373ffffffffffffffffffffffffffffffffffffffff16847f1599c0fcf897af5babc2bfcf707f5dc050f841b044d97c3251ecec35b9abf80b856040516123ac9190612fa5565b60405180910390a350505050565b8260015f8281526020019081526020015f2060060160019054906101000a900460ff1661241c576040517f08c379a0000000000000000000000000000000000000000000000000000000008152600401612413906137f2565b60405180910390fd5b5f828461242991906138a5565b90505f811161246d576040517f08c379a0000000000000000000000000000000000000000000000000000000008152600401612464906142ac565b60405180910390fd5b5f84148061247e5750620f42408410155b6124bd576040517f08c379a00000000000000000000000000000000000000000000000000000000081526004016124b49061433a565b60405180910390fd5b5f8314806124ce5750620f42408310155b61250d576040517f08c379a0000000000000000000000000000000000000000000000000000000008152600401612504906143c8565b60405180910390fd5b5f60015f8781526020019081526020015f20905060ff816006015f9054906101000a900460ff1660ff1614612577576040517f08c379a000000000000000000000000000000000000000000000000000000000815260040161256e90614430565b60405180910390fd5b7f000000000000000000000000000000000000000000000000000000000000000073ffffffffffffffffffffffffffffffffffffffff166323b872dd3330856040518463ffffffff1660e01b81526004016125d49392919061422d565b6020604051808303815f875af11580156125f0573d5f803e3d5ffd5b505050506040513d601f19601f82011682018060405250810190612614919061395c565b612653576040517f08c379a000000000000000000000000000000000000000000000000000000000815260040161264a90614119565b60405180910390fd5b5f851115612729578460035f8881526020019081526020015f205f3373ffffffffffffffffffffffffffffffffffffffff1673ffffffffffffffffffffffffffffffffffffffff1681526020019081526020015f205f8282546126b691906138a5565b9250508190555084816003015f8282546126d091906138a5565b925050819055503373ffffffffffffffffffffffffffffffffffffffff16867f4f1eed5e863a822b0f9eb960dfdab2cc5a99beec4b191f2a7a9c7e28e5a155245f88604051612720929190614487565b60405180910390a35b5f841115612800578360045f8881526020019081526020015f205f3373ffffffffffffffffffffffffffffffffffffffff1673ffffffffffffffffffffffffffffffffffffffff1681526020019081526020015f205f82825461278c91906138a5565b9250508190555083816004015f8282546127a691906138a5565b925050819055503373ffffffffffffffffffffffffffffffffffffffff16867f4f1eed5e863a822b0f9eb960dfdab2cc5a99beec4b191f2a7a9c7e28e5a155246001876040516127f79291906144e7565b60405180910390a35b505050505050565b620f424081565b5f5481565b6001602052805f5260405f205f91509050805f015490806001015490806002015490806003015490806004015490806005015490806006015f9054906101000a900460ff16908060060160019054906101000a900460ff16905088565b7f000000000000000000000000000000000000000000000000000000000000000073ffffffffffffffffffffffffffffffffffffffff163373ffffffffffffffffffffffffffffffffffffffff16148061291657507f000000000000000000000000000000000000000000000000000000000000000073ffffffffffffffffffffffffffffffffffffffff163373ffffffffffffffffffffffffffffffffffffffff16145b612955576040517f08c379a000000000000000000000000000000000000000000000000000000000815260040161294c906135d3565b60405180910390fd5b8060015f8281526020019081526020015f2060060160019054906101000a900460ff166129b7576040517f08c379a00000000000000000000000000000000000000000000000000000000081526004016129ae906137f2565b60405180910390fd5b5f60015f8481526020019081526020015f2090505f816002015414612a11576040517f08c379a0000000000000000000000000000000000000000000000000000000008152600401612a0890614558565b60405180910390fd5b5f8160030154148015612a2757505f8160040154145b612a66576040517f08c379a0000000000000000000000000000000000000000000000000000000008152600401612a5d906145c0565b60405180910390fd5b5f8160060160016101000a81548160ff021916908315150217905550827f8208c3301e2b33ed01bd95b0317bf43fb2120df72b7406bef4ef4310b1bce5f060405160405180910390a2505050565b7f000000000000000000000000000000000000000000000000000000000000000081565b7f000000000000000000000000000000000000000000000000000000000000000073ffffffffffffffffffffffffffffffffffffffff163373ffffffffffffffffffffffffffffffffffffffff161480612b7d57507f000000000000000000000000000000000000000000000000000000000000000073ffffffffffffffffffffffffffffffffffffffff163373ffffffffffffffffffffffffffffffffffffffff16145b612bbc576040517f08c379a0000000000000000000000000000000000000000000000000000000008152600401612bb3906135d3565b60405180910390fd5b8260015f8281526020019081526020015f2060060160019054906101000a900460ff16612c1e576040517f08c379a0000000000000000000000000000000000000000000000000000000008152600401612c15906137f2565b60405180910390fd5b5f60015f8681526020019081526020015f2090505f816002015411612c78576040517f08c379a0000000000000000000000000000000000000000000000000000000008152600401612c6f90614628565b60405180910390fd5b5f8484905011612cbd576040517f08c379a0000000000000000000000000000000000000000000000000000000008152600401612cb4906146b6565b60405180910390fd5b5f5b84849050811015612ef1575f858583818110612cde57612cdd613878565b5b9050602002016020810190612cf391906131db565b90505f60025f8981526020019081526020015f205f8373ffffffffffffffffffffffffffffffffffffffff1673ffffffffffffffffffffffffffffffffffffffff1681526020019081526020015f205490505f811115612ee2575f60025f8a81526020019081526020015f205f8473ffffffffffffffffffffffffffffffffffffffff1673ffffffffffffffffffffffffffffffffffffffff1681526020019081526020015f208190555080846002015f828254612db191906138d8565b925050819055507f000000000000000000000000000000000000000000000000000000000000000073ffffffffffffffffffffffffffffffffffffffff1663a9059cbb83836040518363ffffffff1660e01b8152600401612e1392919061390b565b6020604051808303815f875af1158015612e2f573d5f803e3d5ffd5b505050506040513d601f19601f82011682018060405250810190612e53919061395c565b612e92576040517f08c379a0000000000000000000000000000000000000000000000000000000008152600401612e8990614744565b60405180910390fd5b8173ffffffffffffffffffffffffffffffffffffffff16887f9bf56934175280aa1916f0593e2fedd5a548b20ba9c49b69a768b794a87cdd2883604051612ed99190612fa5565b60405180910390a35b50508080600101915050612cbf565b505050505050565b7f000000000000000000000000000000000000000000000000000000000000000081565b5f80fd5b5f80fd5b5f819050919050565b612f3781612f25565b8114612f41575f80fd5b50565b5f81359050612f5281612f2e565b92915050565b5f8060408385031215612f6e57612f6d612f1d565b5b5f612f7b85828601612f44565b9250506020612f8c85828601612f44565b9150509250929050565b612f9f81612f25565b82525050565b5f602082019050612fb85f830184612f96565b92915050565b5f73ffffffffffffffffffffffffffffffffffffffff82169050919050565b5f612fe782612fbe565b9050919050565b612ff781612fdd565b8114613001575f80fd5b50565b5f8135905061301281612fee565b92915050565b5f806040838503121561302e5761302d612f1d565b5b5f61303b85828601612f44565b925050602061304c85828601613004565b9150509250929050565b61305f81612fdd565b82525050565b5f6020820190506130785f830184613056565b92915050565b5f80fd5b5f80fd5b5f80fd5b5f8083601f84011261309f5761309e61307e565b5b8235905067ffffffffffffffff8111156130bc576130bb613082565b5b6020830191508360208202830111156130d8576130d7613086565b5b9250929050565b5f805f604084860312156130f6576130f5612f1d565b5b5f61310386828701612f44565b935050602084013567ffffffffffffffff81111561312457613123612f21565b5b6131308682870161308a565b92509250509250925092565b5f6020828403121561315157613150612f1d565b5b5f61315e84828501612f44565b91505092915050565b5f60ff82169050919050565b61317c81613167565b8114613186575f80fd5b50565b5f8135905061319781613173565b92915050565b5f80604083850312156131b3576131b2612f1d565b5b5f6131c085828601612f44565b92505060206131d185828601613189565b9150509250929050565b5f602082840312156131f0576131ef612f1d565b5b5f6131fd84828501613004565b91505092915050565b5f81519050919050565b5f82825260208201905092915050565b5f819050602082019050919050565b61323881612f25565b82525050565b5f613249838361322f565b60208301905092915050565b5f602082019050919050565b5f61326b82613206565b6132758185613210565b935061328083613220565b805f5b838110156132b0578151613297888261323e565b97506132a283613255565b925050600181019050613283565b5085935050505092915050565b5f6040820190508181035f8301526132d58185613261565b905081810360208301526132e98184613261565b90509392505050565b5f6060820190506133055f830186612f96565b6133126020830185612f96565b61331f6040830184612f96565b949350505050565b5f8115159050919050565b61333b81613327565b82525050565b5f60c0820190506133545f830189612f96565b6133616020830188612f96565b61336e6040830187612f96565b61337b6060830186612f96565b6133886080830185612f96565b61339560a0830184613332565b979650505050505050565b5f805f80608085870312156133b8576133b7612f1d565b5b5f6133c587828801612f44565b94505060206133d687828801612f44565b93505060406133e787828801612f44565b92505060606133f887828801612f44565b91505092959194509250565b5f805f6060848603121561341b5761341a612f1d565b5b5f61342886828701612f44565b935050602061343986828701612f44565b925050604061344a86828701612f44565b9150509250925092565b61345d81613167565b82525050565b5f610100820190506134775f83018b612f96565b613484602083018a612f96565b6134916040830189612f96565b61349e6060830188612f96565b6134ab6080830187612f96565b6134b860a0830186612f96565b6134c560c0830185613454565b6134d260e0830184613332565b9998505050505050505050565b5f819050919050565b5f6135026134fd6134f884612fbe565b6134df565b612fbe565b9050919050565b5f613513826134e8565b9050919050565b5f61352482613509565b9050919050565b6135348161351a565b82525050565b5f60208201905061354d5f83018461352b565b92915050565b5f82825260208201905092915050565b7f4f6e6c792061646d696e206f722061646d696e5f6465762063616e2063616c6c5f8201527f20746869732066756e6374696f6e000000000000000000000000000000000000602082015250565b5f6135bd602e83613553565b91506135c882613563565b604082019050919050565b5f6020820190508181035f8301526135ea816135b1565b9050919050565b7f4d696e696d756d20636f7374206d757374206265206174206c656173742031205f8201527f5553444300000000000000000000000000000000000000000000000000000000602082015250565b5f61364b602483613553565b9150613656826135f1565b604082019050919050565b5f6020820190508181035f8301526136788161363f565b9050919050565b7f4d6178696d756d20636f7374206d757374206265203e3d206d696e696d756d205f8201527f636f737400000000000000000000000000000000000000000000000000000000602082015250565b5f6136d9602483613553565b91506136e48261367f565b604082019050919050565b5f6020820190508181035f830152613706816136cd565b9050919050565b7f4e487b71000000000000000000000000000000000000000000000000000000005f52601160045260245ffd5b5f61374482612f25565b91507fffffffffffffffffffffffffffffffffffffffffffffffffffffffffffffffff82036137765761377561370d565b5b600182019050919050565b5f6040820190506137945f830185612f96565b6137a16020830184612f96565b9392505050565b7f4578706572696d656e7420697320636c6f7365640000000000000000000000005f82015250565b5f6137dc601483613553565b91506137e7826137a8565b602082019050919050565b5f6020820190508181035f830152613809816137d0565b9050919050565b7f4d7573742073706563696679206174206c65617374206f6e65207573657200005f82015250565b5f613844601e83613553565b915061384f82613810565b602082019050919050565b5f6020820190508181035f83015261387181613838565b9050919050565b7f4e487b71000000000000000000000000000000000000000000000000000000005f52603260045260245ffd5b5f6138af82612f25565b91506138ba83612f25565b92508282019050808211156138d2576138d161370d565b5b92915050565b5f6138e282612f25565b91506138ed83612f25565b92508282039050818111156139055761390461370d565b5b92915050565b5f60408201905061391e5f830185613056565b61392b6020830184612f96565b9392505050565b61393b81613327565b8114613945575f80fd5b50565b5f8151905061395681613932565b92915050565b5f6020828403121561397157613970612f1d565b5b5f61397e84828501613948565b91505092915050565b7f5472616e73666572206661696c656400000000000000000000000000000000005f82015250565b5f6139bb600f83613553565b91506139c682613987565b602082019050919050565b5f6020820190508181035f8301526139e8816139af565b9050919050565b7f526573756c74206e6f74207365740000000000000000000000000000000000005f82015250565b5f613a23600e83613553565b9150613a2e826139ef565b602082019050919050565b5f6020820190508181035f830152613a5081613a17565b9050919050565b7f4e6f2077696e6e696e67206265740000000000000000000000000000000000005f82015250565b5f613a8b600e83613553565b9150613a9682613a57565b602082019050919050565b5f6020820190508181035f830152613ab881613a7f565b9050919050565b5f613ac982612f25565b9150613ad483612f25565b9250828202613ae281612f25565b91508282048414831517613af957613af861370d565b5b5092915050565b7f4e487b71000000000000000000000000000000000000000000000000000000005f52601260045260245ffd5b5f613b3782612f25565b9150613b4283612f25565b925082613b5257613b51613b00565b5b828204905092915050565b7f4f6e6c792061646d696e2063616e2063616c6c20746869732066756e6374696f5f8201527f6e00000000000000000000000000000000000000000000000000000000000000602082015250565b5f613bb7602183613553565b9150613bc282613b5d565b604082019050919050565b5f6020820190508181035f830152613be481613bab565b9050919050565b7f496e76616c696420726573756c740000000000000000000000000000000000005f82015250565b5f613c1f600e83613553565b9150613c2a82613beb565b602082019050919050565b5f6020820190508181035f830152613c4c81613c13565b9050919050565b7f4578706572696d656e74206973206e6f7420636c6f73656400000000000000005f82015250565b5f613c87601883613553565b9150613c9282613c53565b602082019050919050565b5f6020820190508181035f830152613cb481613c7b565b9050919050565b7f526573756c7420616c72656164792073657400000000000000000000000000005f82015250565b5f613cef601283613553565b9150613cfa82613cbb565b602082019050919050565b5f6020820190508181035f830152613d1c81613ce3565b9050919050565b7f4e6f206265747320706c616365640000000000000000000000000000000000005f82015250565b5f613d57600e83613553565b9150613d6282613d23565b602082019050919050565b5f6020820190508181035f830152613d8481613d4b565b9050919050565b7f57696e6e696e67207369646520686173206e6f206265747300000000000000005f82015250565b5f613dbf601883613553565b9150613dca82613d8b565b602082019050919050565b5f6020820190508181035f830152613dec81613db3565b9050919050565b5f602082019050613e065f830184613454565b92915050565b7f4e487b71000000000000000000000000000000000000000000000000000000005f52604160045260245ffd5b7f4d757374207761697420393020646179730000000000000000000000000000005f82015250565b5f613e6d601183613553565b9150613e7882613e39565b602082019050919050565b5f6020820190508181035f830152613e9a81613e61565b9050919050565b7f4e6f206265747320746f207769746864726177000000000000000000000000005f82015250565b5f613ed5601383613553565b9150613ee082613ea1565b602082019050919050565b5f6020820190508181035f830152613f0281613ec9565b9050919050565b7f4e6f2066756e647320746f2077697468647261770000000000000000000000005f82015250565b5f613f3d601483613553565b9150613f4882613f09565b602082019050919050565b5f6020820190508181035f830152613f6a81613f31565b9050919050565b7f4d696e696d756d20636f737420686173206e6f74206265656e207265616368655f8201527f6400000000000000000000000000000000000000000000000000000000000000602082015250565b5f613fcb602183613553565b9150613fd682613f71565b604082019050919050565b5f6020820190508181035f830152613ff881613fbf565b9050919050565b7f546f6b656e207472616e7366657220746f2061646d696e206661696c656400005f82015250565b5f614033601e83613553565b915061403e82613fff565b602082019050919050565b5f6020820190508181035f83015261406081614027565b9050919050565b7f4e6f206465706f7369747320746f2077697468647261770000000000000000005f82015250565b5f61409b601783613553565b91506140a682614067565b602082019050919050565b5f6020820190508181035f8301526140c88161408f565b9050919050565b7f546f6b656e207472616e73666572206661696c656400000000000000000000005f82015250565b5f614103601583613553565b915061410e826140cf565b602082019050919050565b5f6020820190508181035f830152614130816140f7565b9050919050565b7f4465706f736974206d757374206265206174206c6561737420312055534443005f82015250565b5f61416b601f83613553565b915061417682614137565b602082019050919050565b5f6020820190508181035f8301526141988161415f565b9050919050565b7f4465706f73697420776f756c6420657863656564206d6178696d756d20636f735f8201527f7400000000000000000000000000000000000000000000000000000000000000602082015250565b5f6141f9602183613553565b91506142048261419f565b604082019050919050565b5f6020820190508181035f830152614226816141ed565b9050919050565b5f6060820190506142405f830186613056565b61424d6020830185613056565b61425a6040830184612f96565b949350505050565b7f4d75737420626574206f6e206174206c65617374206f6e65206f7574636f6d655f82015250565b5f614296602083613553565b91506142a182614262565b602082019050919050565b5f6020820190508181035f8301526142c38161428a565b9050919050565b7f426574206f6e206f7574636f6d652030206d7573742062652030206f722061745f8201527f206c656173742031205553444300000000000000000000000000000000000000602082015250565b5f614324602d83613553565b915061432f826142ca565b604082019050919050565b5f6020820190508181035f83015261435181614318565b9050919050565b7f426574206f6e206f7574636f6d652031206d7573742062652030206f722061745f8201527f206c656173742031205553444300000000000000000000000000000000000000602082015250565b5f6143b2602d83613553565b91506143bd82614358565b604082019050919050565b5f6020820190508181035f8301526143df816143a6565b9050919050565b7f42657474696e6720636c6f7365640000000000000000000000000000000000005f82015250565b5f61441a600e83613553565b9150614425826143e6565b602082019050919050565b5f6020820190508181035f8301526144478161440e565b9050919050565b5f819050919050565b5f61447161446c6144678461444e565b6134df565b613167565b9050919050565b61448181614457565b82525050565b5f60408201905061449a5f830185614478565b6144a76020830184612f96565b9392505050565b5f819050919050565b5f6144d16144cc6144c7846144ae565b6134df565b613167565b9050919050565b6144e1816144b7565b82525050565b5f6040820190506144fa5f8301856144d8565b6145076020830184612f96565b9392505050565b7f4d7573742072657475726e20616c6c206465706f7369747320666972737400005f82015250565b5f614542601e83613553565b915061454d8261450e565b602082019050919050565b5f6020820190508181035f83015261456f81614536565b9050919050565b7f4d7573742072657475726e20616c6c20626574732066697273740000000000005f82015250565b5f6145aa601a83613553565b91506145b582614576565b602082019050919050565b5f6020820190508181035f8301526145d78161459e565b9050919050565b7f4e6f2066756e647320746f2072657475726e00000000000000000000000000005f82015250565b5f614612601283613553565b915061461d826145de565b602082019050919050565b5f6020820190508181035f83015261463f81614606565b9050919050565b7f4d7573742073706563696679206174206c65617374206f6e65206465706f73695f8201527f746f720000000000000000000000000000000000000000000000000000000000602082015250565b5f6146a0602383613553565b91506146ab82614646565b604082019050919050565b5f6020820190508181035f8301526146cd81614694565b9050919050565b7f546f6b656e207472616e7366657220746f206465706f7369746f72206661696c5f8201527f6564000000000000000000000000000000000000000000000000000000000000602082015250565b5f61472e602283613553565b9150614739826146d4565b604082019050919050565b5f6020820190508181035f83015261475b81614722565b905091905056fea26469706673582212201d9fd4121ea48185016a71619d410de2088ac2d7f739065873d294e150fd5c6764736f6c634300081a0033","linkReferences":{}},"methodIdentifiers":{"MIN_AMOUNT()":"ddbcb5fa","admin()":"f851a440","adminClose(uint256)":"f229be81","adminCreateExperiment(uint256,uint256)":"00c62450","adminRefund(uint256,address[])":"f9a3be04","adminReturnBet(uint256,address[])":"410fa4f3","adminSetResult(uint256,uint8)":"4932d87d","adminWithdraw(uint256)":"7c5b4a37","admin_dev()":"2504d63a","bets0(uint256,address)":"869df59c","bets1(uint256,address)":"10b81915","deposits(uint256,address)":"53a58de1","experiments(uint256)":"eb4706b5","getExperimentInfo(uint256)":"95003a0f","getUserExperiments(address)":"5fe3c8ed","getUserPosition(uint256,address)":"869da9db","nextExperimentId()":"e40b1e31","token()":"fc0c546a","userBet(uint256,uint256,uint256)":"d53a36cb","userClaimBetProfit(uint256)":"47593352","userDeposit(uint256,uint256)":"c4164274","userFundAndBet(uint256,uint256,uint256,uint256)":"b4e94f7a","userUnbet(uint256)":"718eeffc","userUndeposit(uint256)":"924020b4"},"id":16}