{"abi":[{"type":"constructor","inputs":[{"name":"_admin","type":"address","internalType":"address"},{"name":"_adminDev","type":"address","internalType":"address"},{"name":"_token","type":"address","internalType":"address"}],"stateMutability":"nonpayable"},{"type":"function","name":"ADMIN","inputs":[],"outputs":[{"name":"","type":"address","internalType":"address"}],"stateMutability":"view"},{"type":"function","name":"ADMIN_DEV","inputs":[],"outputs":[{"name":"","type":"address","internalType":"address"}],"stateMutability":"view"},{"type":"function","name":"MIN_AMOUNT","inputs":[],"outputs":[{"name":"","type":"uint256","internalType":"uint256"}],"stateMutability":"view"},{"type":"function","name":"TOKEN","inputs":[],"outputs":[{"name":"","type":"address","internalType":"contract IERC20"}],"stateMutability":"view"},{"type":"function","name":"adminClose","inputs":[{"name":"experimentId","type":"uint256","internalType":"uint256"}],"outputs":[],"stateMutability":"nonpayable"},{"type":"function","name":"adminCreateExperiment","inputs":[{"name":"costMin","type":"uint256","internalType":"uint256"},{"name":"costMax","type":"uint256","internalType":"uint256"}],"outputs":[{"name":"","type":"uint256","internalType":"uint256"}],"stateMutability":"nonpayable"},{"type":"function","name":"adminRefund","inputs":[{"name":"experimentId","type":"uint256","internalType":"uint256"},{"name":"depositors","type":"address[]","internalType":"address[]"}],"outputs":[],"stateMutability":"nonpayable"},{"type":"function","name":"adminReturnBet","inputs":[{"name":"experimentId","type":"uint256","internalType":"uint256"},{"name":"users","type":"address[]","internalType":"address[]"}],"outputs":[],"stateMutability":"nonpayable"},{"type":"function","name":"adminSetResult","inputs":[{"name":"experimentId","type":"uint256","internalType":"uint256"},{"name":"result","type":"uint8","internalType":"uint8"}],"outputs":[],"stateMutability":"nonpayable"},{"type":"function","name":"adminWithdraw","inputs":[{"name":"experimentId","type":"uint256","internalType":"uint256"}],"outputs":[],"stateMutability":"nonpayable"},{"type":"function","name":"bets0","inputs":[{"name":"","type":"uint256","internalType":"uint256"},{"name":"","type":"address","internalType":"address"}],"outputs":[{"name":"","type":"uint256","internalType":"uint256"}],"stateMutability":"view"},{"type":"function","name":"bets1","inputs":[{"name":"","type":"uint256","internalType":"uint256"},{"name":"","type":"address","internalType":"address"}],"outputs":[{"name":"","type":"uint256","internalType":"uint256"}],"stateMutability":"view"},{"type":"function","name":"deposits","inputs":[{"name":"","type":"uint256","internalType":"uint256"},{"name":"","type":"address","internalType":"address"}],"outputs":[{"name":"","type":"uint256","internalType":"uint256"}],"stateMutability":"view"},{"type":"function","name":"experiments","inputs":[{"name":"","type":"uint256","internalType":"uint256"}],"outputs":[{"name":"costMin","type":"uint256","internalType":"uint256"},{"name":"costMax","type":"uint256","internalType":"uint256"},{"name":"totalDeposited","type":"uint256","internalType":"uint256"},{"name":"totalBet0","type":"uint256","internalType":"uint256"},{"name":"totalBet1","type":"uint256","internalType":"uint256"},{"name":"experimentCreatedAt","type":"uint256","internalType":"uint256"},{"name":"bettingOutcome","type":"uint8","internalType":"uint8"},{"name":"open","type":"bool","internalType":"bool"}],"stateMutability":"view"},{"type":"function","name":"getExperimentInfo","inputs":[{"name":"experimentId","type":"uint256","internalType":"uint256"}],"outputs":[{"name":"costMin","type":"uint256","internalType":"uint256"},{"name":"costMax","type":"uint256","internalType":"uint256"},{"name":"totalDeposited","type":"uint256","internalType":"uint256"},{"name":"totalBet0","type":"uint256","internalType":"uint256"},{"name":"totalBet1","type":"uint256","internalType":"uint256"},{"name":"experimentCreatedAt","type":"uint256","internalType":"uint256"},{"name":"bettingOutcome","type":"uint8","internalType":"uint8"},{"name":"open","type":"bool","internalType":"bool"}],"stateMutability":"view"},{"type":"function","name":"getUserExperiments","inputs":[{"name":"user","type":"address","internalType":"address"}],"outputs":[{"name":"experimentIds","type":"uint256[]","internalType":"uint256[]"},{"name":"depositAmounts","type":"uint256[]","internalType":"uint256[]"}],"stateMutability":"view"},{"type":"function","name":"getUserPosition","inputs":[{"name":"experimentId","type":"uint256","internalType":"uint256"},{"name":"user","type":"address","internalType":"address"}],"outputs":[{"name":"depositAmount","type":"uint256","internalType":"uint256"},{"name":"betAmount0","type":"uint256","internalType":"uint256"},{"name":"betAmount1","type":"uint256","internalType":"uint256"}],"stateMutability":"view"},{"type":"function","name":"nextExperimentId","inputs":[],"outputs":[{"name":"","type":"uint256","internalType":"uint256"}],"stateMutability":"view"},{"type":"function","name":"userBet","inputs":[{"name":"experimentId","type":"uint256","internalType":"uint256"},{"name":"betAmount0","type":"uint256","internalType":"uint256"},{"name":"betAmount1","type":"uint256","internalType":"uint256"}],"outputs":[],"stateMutability":"nonpayable"},{"type":"function","name":"userClaimBetProfit","inputs":[{"name":"experimentId","type":"uint256","internalType":"uint256"}],"outputs":[{"name":"","type":"uint256","internalType":"uint256"}],"stateMutability":"nonpayable"},{"type":"function","name":"userDeposit","inputs":[{"name":"experimentId","type":"uint256","internalType":"uint256"},{"name":"amount","type":"uint256","internalType":"uint256"}],"outputs":[],"stateMutability":"nonpayable"},{"type":"function","name":"userFundAndBet","inputs":[{"name":"experimentId","type":"uint256","internalType":"uint256"},{"name":"fundAmount","type":"uint256","internalType":"uint256"},{"name":"betAmount0","type":"uint256","internalType":"uint256"},{"name":"betAmount1","type":"uint256","internalType":"uint256"}],"outputs":[],"stateMutability":"nonpayable"},{"type":"function","name":"userUnbet","inputs":[{"name":"experimentId","type":"uint256","internalType":"uint256"}],"outputs":[],"stateMutability":"nonpayable"},{"type":"function","name":"userUndeposit","inputs":[{"name":"experimentId","type":"uint256","internalType":"uint256"}],"outputs":[],"stateMutability":"nonpayable"},{"type":"event","name":"AdminClose","inputs":[{"name":"experimentId","type":"uint256","indexed":true,"internalType":"uint256"}],"anonymous":false},{"type":"event","name":"AdminWithdraw","inputs":[{"name":"experimentId","type":"uint256","indexed":true,"internalType":"uint256"},{"name":"amount","type":"uint256","indexed":false,"internalType":"uint256"}],"anonymous":false},{"type":"event","name":"BetPlaced","inputs":[{"name":"experimentId","type":"uint256","indexed":true,"internalType":"uint256"},{"name":"bettor","type":"address","indexed":true,"internalType":"address"},{"name":"outcome","type":"uint8","indexed":false,"internalType":"uint8"},{"name":"amount","type":"uint256","indexed":false,"internalType":"uint256"}],"anonymous":false},{"type":"event","name":"BetProfitClaimed","inputs":[{"name":"experimentId","type":"uint256","indexed":true,"internalType":"uint256"},{"name":"winner","type":"address","indexed":true,"internalType":"address"},{"name":"payout","type":"uint256","indexed":false,"internalType":"uint256"}],"anonymous":false},{"type":"event","name":"BetReturned","inputs":[{"name":"experimentId","type":"uint256","indexed":true,"internalType":"uint256"},{"name":"bettor","type":"address","indexed":true,"internalType":"address"},{"name":"amount","type":"uint256","indexed":false,"internalType":"uint256"}],"anonymous":false},{"type":"event","name":"Deposited","inputs":[{"name":"experimentId","type":"uint256","indexed":true,"internalType":"uint256"},{"name":"depositor","type":"address","indexed":true,"internalType":"address"},{"name":"amount","type":"uint256","indexed":false,"internalType":"uint256"}],"anonymous":false},{"type":"event","name":"ExperimentCreated","inputs":[{"name":"experimentId","type":"uint256","indexed":true,"internalType":"uint256"},{"name":"costMin","type":"uint256","indexed":false,"internalType":"uint256"},{"name":"costMax","type":"uint256","indexed":false,"internalType":"uint256"}],"anonymous":false},{"type":"event","name":"ResultSet","inputs":[{"name":"experimentId","type":"uint256","indexed":true,"internalType":"uint256"},{"name":"result","type":"uint8","indexed":false,"internalType":"uint8"}],"anonymous":false},{"type":"event","name":"Undeposited","inputs":[{"name":"experimentId","type":"uint256","indexed":true,"internalType":"uint256"},{"name":"depositor","type":"address","indexed":true,"internalType":"address"},{"name":"amount","type":"uint256","indexed":false,"internalType":"uint256"}],"anonymous":false},{"type":"error","name":"BetBelowMinimum","inputs":[]},{"type":"error","name":"DepositBelowMinimum","inputs":[]},{"type":"error","name":"DepositExceedsMaxCost","inputs":[]},{"type":"error","name":"ExperimentClosed","inputs":[]},{"type":"error","name":"ExperimentNotClosed","inputs":[]},{"type":"error","name":"InvalidResult","inputs":[]},{"type":"error","name":"MaxCostBelowMinCost","inputs":[]},{"type":"error","name":"MinCostNotReached","inputs":[]},{"type":"error","name":"MinCostTooLow","inputs":[]},{"type":"error","name":"MustReturnAllBetsFirst","inputs":[]},{"type":"error","name":"MustReturnAllDepositsFirst","inputs":[]},{"type":"error","name":"MustWait60Days","inputs":[]},{"type":"error","name":"NoWinningBet","inputs":[]},{"type":"error","name":"OnlyAdmin","inputs":[]},{"type":"error","name":"OnlyAdminOrAdminDev","inputs":[]},{"type":"error","name":"ResultAlreadySet","inputs":[]},{"type":"error","name":"ResultNotSet","inputs":[]},{"type":"error","name":"TokenTransferFailed","inputs":[]},{"type":"error","name":"WinningSideHasNoBets","inputs":[]},{"type":"error","name":"ZeroAddress","inputs":[]}],"bytecode":{"object":"0x60e060405234801561000f575f5ffd5b506040516132e23803806132e283398181016040528101906100319190610268565b5f73ffffffffffffffffffffffffffffffffffffffff168373ffffffffffffffffffffffffffffffffffffffff1603610096576040517fd92e233d00000000000000000000000000000000000000000000000000000000815260040160405180910390fd5b5f73ffffffffffffffffffffffffffffffffffffffff168273ffffffffffffffffffffffffffffffffffffffff16036100fb576040517fd92e233d00000000000000000000000000000000000000000000000000000000815260040160405180910390fd5b5f73ffffffffffffffffffffffffffffffffffffffff168173ffffffffffffffffffffffffffffffffffffffff1603610160576040517fd92e233d00000000000000000000000000000000000000000000000000000000815260040160405180910390fd5b8273ffffffffffffffffffffffffffffffffffffffff1660808173ffffffffffffffffffffffffffffffffffffffff16815250508173ffffffffffffffffffffffffffffffffffffffff1660a08173ffffffffffffffffffffffffffffffffffffffff16815250508073ffffffffffffffffffffffffffffffffffffffff1660c08173ffffffffffffffffffffffffffffffffffffffff16815250505f5f819055505050506102b8565b5f5ffd5b5f73ffffffffffffffffffffffffffffffffffffffff82169050919050565b5f6102378261020e565b9050919050565b6102478161022d565b8114610251575f5ffd5b50565b5f815190506102628161023e565b92915050565b5f5f5f6060848603121561027f5761027e61020a565b5b5f61028c86828701610254565b935050602061029d86828701610254565b92505060406102ae86828701610254565b9150509250925092565b60805160a05160c051612f896103595f395f8181610b100152818161133901528181611468015281816117cc015281816119fa015281816122d401526124d401525f81816105220152818161079b01528181610e9a01528181611dbc0152611fef01525f81816104cb015281816107200152818161074401528181610c3a015281816111cb0152818161137501528181611d650152611f980152612f895ff3fe608060405234801561000f575f5ffd5b5060043610610155575f3560e01c8063869da9db116100c1578063d53a36cb1161007a578063d53a36cb14610401578063ddbcb5fa1461041d578063e40b1e311461043b578063eb4706b514610459578063f229be8114610490578063f9a3be04146104ac57610155565b8063869da9db14610314578063869df59c14610346578063924020b41461037657806395003a0f14610392578063b4e94f7a146103c9578063c4164274146103e557610155565b80634d39c69e116101135780634d39c69e1461023f57806353a58de11461025d5780635fe3c8ed1461028d578063718eeffc146102be5780637c5b4a37146102da57806382bfefc8146102f657610155565b8062c624501461015957806310b81915146101895780632a0acc6a146101b9578063410fa4f3146101d757806347593352146101f35780634932d87d14610223575b5f5ffd5b610173600480360381019061016e9190612634565b6104c8565b6040516101809190612681565b60405180910390f35b6101a3600480360381019061019e91906126f4565b6106fe565b6040516101b09190612681565b60405180910390f35b6101c161071e565b6040516101ce9190612741565b60405180910390f35b6101f160048036038101906101ec91906127bb565b610742565b005b61020d60048036038101906102089190612818565b610875565b60405161021a9190612681565b60405180910390f35b61023d60048036038101906102389190612879565b610c38565b005b610247610e98565b6040516102549190612741565b60405180910390f35b610277600480360381019061027291906126f4565b610ebc565b6040516102849190612681565b60405180910390f35b6102a760048036038101906102a291906128b7565b610edc565b6040516102b5929190612999565b60405180910390f35b6102d860048036038101906102d39190612818565b61110e565b005b6102f460048036038101906102ef9190612818565b6111c9565b005b6102fe611466565b60405161030b9190612a29565b60405180910390f35b61032e600480360381019061032991906126f4565b61148a565b60405161033d93929190612a42565b60405180910390f35b610360600480360381019061035b91906126f4565b611581565b60405161036d9190612681565b60405180910390f35b610390600480360381019061038b9190612818565b6115a1565b005b6103ac60048036038101906103a79190612818565b611616565b6040516103c0989796959493929190612aa0565b60405180910390f35b6103e360048036038101906103de9190612b1c565b61168e565b005b6103ff60048036038101906103fa9190612634565b6116c5565b005b61041b60048036038101906104169190612b80565b61196e565b005b610425611cfa565b6040516104329190612681565b60405180910390f35b610443611d01565b6040516104509190612681565b60405180910390f35b610473600480360381019061046e9190612818565b611d06565b604051610487989796959493929190612aa0565b60405180910390f35b6104aa60048036038101906104a59190612818565b611d63565b005b6104c660048036038101906104c191906127bb565b611f96565b005b5f7f000000000000000000000000000000000000000000000000000000000000000073ffffffffffffffffffffffffffffffffffffffff163373ffffffffffffffffffffffffffffffffffffffff161415801561057157507f000000000000000000000000000000000000000000000000000000000000000073ffffffffffffffffffffffffffffffffffffffff163373ffffffffffffffffffffffffffffffffffffffff1614155b156105a8576040517f1da230a100000000000000000000000000000000000000000000000000000000815260040160405180910390fd5b620f42408310156105e4576040517e103c6700000000000000000000000000000000000000000000000000000000815260040160405180910390fd5b8282101561061e576040517fc5ebeef800000000000000000000000000000000000000000000000000000000815260040160405180910390fd5b5f5f5f81548092919061063090612bfd565b9190505590505f60015f8381526020019081526020015f20905084815f01819055508381600101819055505f81600201819055505f81600301819055505f816004018190555060ff816006015f6101000a81548160ff021916908360ff16021790555042816005018190555060018160060160016101000a81548160ff021916908315150217905550817fa50648571e1c813a4bcc3aa4af6facdda67d632aee011898c3b4156f630abbd186866040516106eb929190612c44565b60405180910390a2819250505092915050565b6004602052815f5260405f20602052805f5260405f205f91509150505481565b7f000000000000000000000000000000000000000000000000000000000000000081565b7f000000000000000000000000000000000000000000000000000000000000000073ffffffffffffffffffffffffffffffffffffffff163373ffffffffffffffffffffffffffffffffffffffff16141580156107ea57507f000000000000000000000000000000000000000000000000000000000000000073ffffffffffffffffffffffffffffffffffffffff163373ffffffffffffffffffffffffffffffffffffffff1614155b15610821576040517f1da230a100000000000000000000000000000000000000000000000000000000815260040160405180910390fd5b5f5f90505b8282905081101561086f576108628484848481811061084857610847612c6b565b5b905060200201602081019061085d91906128b7565b612131565b8080600101915050610826565b50505050565b5f5f60015f8481526020019081526020015f20905060ff816006015f9054906101000a900460ff1660ff16036108d7576040517f943d9c5c00000000000000000000000000000000000000000000000000000000815260040160405180910390fd5b5f5f826006015f9054906101000a900460ff1660ff1603610a02575f60035f8681526020019081526020015f205f3373ffffffffffffffffffffffffffffffffffffffff1673ffffffffffffffffffffffffffffffffffffffff1681526020019081526020015f205490505f810361097b576040517fe9a07bf900000000000000000000000000000000000000000000000000000000815260040160405180910390fd5b8260030154836004015484600301546109949190612c98565b8261099f9190612ccb565b6109a99190612d39565b91505f60035f8781526020019081526020015f205f3373ffffffffffffffffffffffffffffffffffffffff1673ffffffffffffffffffffffffffffffffffffffff1681526020019081526020015f208190555050610b0e565b5f60045f8681526020019081526020015f205f3373ffffffffffffffffffffffffffffffffffffffff1673ffffffffffffffffffffffffffffffffffffffff1681526020019081526020015f205490505f8103610a8b576040517fe9a07bf900000000000000000000000000000000000000000000000000000000815260040160405180910390fd5b826004015483600401548460030154610aa49190612c98565b82610aaf9190612ccb565b610ab99190612d39565b91505f60045f8781526020019081526020015f205f3373ffffffffffffffffffffffffffffffffffffffff1673ffffffffffffffffffffffffffffffffffffffff1681526020019081526020015f2081905550505b7f000000000000000000000000000000000000000000000000000000000000000073ffffffffffffffffffffffffffffffffffffffff1663a9059cbb33836040518363ffffffff1660e01b8152600401610b69929190612d69565b6020604051808303815f875af1158015610b85573d5f5f3e3d5ffd5b505050506040513d601f19601f82011682018060405250810190610ba99190612dba565b610bdf576040517f045c4b0200000000000000000000000000000000000000000000000000000000815260040160405180910390fd5b3373ffffffffffffffffffffffffffffffffffffffff16847f641d020f1a3109a6c79899ca76fbb17eb9c61c186657c48526cdb951e853aead83604051610c269190612681565b60405180910390a38092505050919050565b7f000000000000000000000000000000000000000000000000000000000000000073ffffffffffffffffffffffffffffffffffffffff163373ffffffffffffffffffffffffffffffffffffffff1614610cbd576040517f4755657900000000000000000000000000000000000000000000000000000000815260040160405180910390fd5b5f8160ff1614158015610cd4575060018160ff1614155b15610d0b576040517f7c599f8000000000000000000000000000000000000000000000000000000000815260040160405180910390fd5b5f60015f8481526020019081526020015f2090508060060160019054906101000a900460ff1615610d68576040517fa0fb753700000000000000000000000000000000000000000000000000000000815260040160405180910390fd5b60ff816006015f9054906101000a900460ff1660ff1614610db5576040517f6b2b440800000000000000000000000000000000000000000000000000000000815260040160405180910390fd5b5f8260ff1603610e01575f816003015403610dfc576040517f7d7e500900000000000000000000000000000000000000000000000000000000815260040160405180910390fd5b610e3f565b5f816004015403610e3e576040517f7d7e500900000000000000000000000000000000000000000000000000000000815260040160405180910390fd5b5b81816006015f6101000a81548160ff021916908360ff160217905550827f96a72b23d1215cfbff54a1749ea932981d1fcff3f46592daf9331409cfbf7e3d83604051610e8b9190612de5565b60405180910390a2505050565b7f000000000000000000000000000000000000000000000000000000000000000081565b6002602052815f5260405f20602052805f5260405f205f91509150505481565b6060805f5f90505f5f90505b5f54811015610f61575f60025f8381526020019081526020015f205f8773ffffffffffffffffffffffffffffffffffffffff1673ffffffffffffffffffffffffffffffffffffffff1681526020019081526020015f20541115610f54578180610f5090612bfd565b9250505b8080600101915050610ee8565b508067ffffffffffffffff811115610f7c57610f7b612dfe565b5b604051908082528060200260200182016040528015610faa5781602001602082028036833780820191505090505b5092508067ffffffffffffffff811115610fc757610fc6612dfe565b5b604051908082528060200260200182016040528015610ff55781602001602082028036833780820191505090505b5091505f5f90505f5f90505b5f54811015611106575f60025f8381526020019081526020015f205f8873ffffffffffffffffffffffffffffffffffffffff1673ffffffffffffffffffffffffffffffffffffffff1681526020019081526020015f205411156110f9578085838151811061107257611071612c6b565b5b60200260200101818152505060025f8281526020019081526020015f205f8773ffffffffffffffffffffffffffffffffffffffff1673ffffffffffffffffffffffffffffffffffffffff1681526020019081526020015f20548483815181106110de576110dd612c6b565b5b60200260200101818152505081806110f590612bfd565b9250505b8080600101915050611001565b505050915091565b5f60015f8381526020019081526020015f209050624f1a0081600501546111359190612c98565b42101561116e576040517f842bf28d00000000000000000000000000000000000000000000000000000000815260040160405180910390fd5b60ff816006015f9054906101000a900460ff1660ff16146111bb576040517f6b2b440800000000000000000000000000000000000000000000000000000000815260040160405180910390fd5b6111c58233612131565b5050565b7f000000000000000000000000000000000000000000000000000000000000000073ffffffffffffffffffffffffffffffffffffffff163373ffffffffffffffffffffffffffffffffffffffff161461124e576040517f4755657900000000000000000000000000000000000000000000000000000000815260040160405180910390fd5b805f548110158061127e575060015f8281526020019081526020015f2060060160019054906101000a900460ff16155b156112b5576040517f8db4181500000000000000000000000000000000000000000000000000000000815260040160405180910390fd5b5f60015f8481526020019081526020015f209050805f01548160020154101561130a576040517f0969b25300000000000000000000000000000000000000000000000000000000815260040160405180910390fd5b5f816002015490505f82600201819055505f8260060160016101000a81548160ff0219169083151502179055507f000000000000000000000000000000000000000000000000000000000000000073ffffffffffffffffffffffffffffffffffffffff1663a9059cbb7f0000000000000000000000000000000000000000000000000000000000000000836040518363ffffffff1660e01b81526004016113b2929190612d69565b6020604051808303815f875af11580156113ce573d5f5f3e3d5ffd5b505050506040513d601f19601f820116820180604052508101906113f29190612dba565b611428576040517f045c4b0200000000000000000000000000000000000000000000000000000000815260040160405180910390fd5b837f94ebb62a252249c867ecb758d386f50a95be7e8df9e1c52917c9cf494327dd7d826040516114589190612681565b60405180910390a250505050565b7f000000000000000000000000000000000000000000000000000000000000000081565b5f5f5f60025f8681526020019081526020015f205f8573ffffffffffffffffffffffffffffffffffffffff1673ffffffffffffffffffffffffffffffffffffffff1681526020019081526020015f205460035f8781526020019081526020015f205f8673ffffffffffffffffffffffffffffffffffffffff1673ffffffffffffffffffffffffffffffffffffffff1681526020019081526020015f205460045f8881526020019081526020015f205f8773ffffffffffffffffffffffffffffffffffffffff1673ffffffffffffffffffffffffffffffffffffffff1681526020019081526020015f20549250925092509250925092565b6003602052815f5260405f20602052805f5260405f205f91509150505481565b805f54811015806115d1575060015f8281526020019081526020015f2060060160019054906101000a900460ff16155b15611608576040517f8db4181500000000000000000000000000000000000000000000000000000000815260040160405180910390fd5b61161282336123fb565b5050565b5f5f5f5f5f5f5f5f5f60015f8b81526020019081526020015f209050805f015481600101548260020154836003015484600401548560050154866006015f9054906101000a900460ff168760060160019054906101000a900460ff169850985098509850985098509850985050919395975091939597565b5f8311156116a1576116a084846116c5565b5b5f8211806116ae57505f81115b156116bf576116be84838361196e565b5b50505050565b815f54811015806116f5575060015f8281526020019081526020015f2060060160019054906101000a900460ff16155b1561172c576040517f8db4181500000000000000000000000000000000000000000000000000000000815260040160405180910390fd5b620f4240821015611769576040517fc24b1b6100000000000000000000000000000000000000000000000000000000815260040160405180910390fd5b5f60015f8581526020019081526020015f20905080600101548382600201546117929190612c98565b11156117ca576040517f0a263ab700000000000000000000000000000000000000000000000000000000815260040160405180910390fd5b7f000000000000000000000000000000000000000000000000000000000000000073ffffffffffffffffffffffffffffffffffffffff166323b872dd3330866040518463ffffffff1660e01b815260040161182793929190612e2b565b6020604051808303815f875af1158015611843573d5f5f3e3d5ffd5b505050506040513d601f19601f820116820180604052508101906118679190612dba565b61189d576040517f045c4b0200000000000000000000000000000000000000000000000000000000815260040160405180910390fd5b8260025f8681526020019081526020015f205f3373ffffffffffffffffffffffffffffffffffffffff1673ffffffffffffffffffffffffffffffffffffffff1681526020019081526020015f205f8282546118f89190612c98565b9250508190555082816002015f8282546119129190612c98565b925050819055503373ffffffffffffffffffffffffffffffffffffffff16847f1599c0fcf897af5babc2bfcf707f5dc050f841b044d97c3251ecec35b9abf80b856040516119609190612681565b60405180910390a350505050565b825f548110158061199e575060015f8281526020019081526020015f2060060160019054906101000a900460ff16155b156119d5576040517f8db4181500000000000000000000000000000000000000000000000000000000815260040160405180910390fd5b5f60015f8681526020019081526020015f2090505f83856119f69190612c98565b90507f000000000000000000000000000000000000000000000000000000000000000073ffffffffffffffffffffffffffffffffffffffff166323b872dd3330846040518463ffffffff1660e01b8152600401611a5593929190612e2b565b6020604051808303815f875af1158015611a71573d5f5f3e3d5ffd5b505050506040513d601f19601f82011682018060405250810190611a959190612dba565b611acb576040517f045c4b0200000000000000000000000000000000000000000000000000000000815260040160405180910390fd5b5f851115611bde57620f4240851015611b10576040517f2ce1311500000000000000000000000000000000000000000000000000000000815260040160405180910390fd5b8460035f8881526020019081526020015f205f3373ffffffffffffffffffffffffffffffffffffffff1673ffffffffffffffffffffffffffffffffffffffff1681526020019081526020015f205f828254611b6b9190612c98565b9250508190555084826003015f828254611b859190612c98565b925050819055503373ffffffffffffffffffffffffffffffffffffffff16867f4f1eed5e863a822b0f9eb960dfdab2cc5a99beec4b191f2a7a9c7e28e5a155245f88604051611bd5929190612e99565b60405180910390a35b5f841115611cf257620f4240841015611c23576040517f2ce1311500000000000000000000000000000000000000000000000000000000815260040160405180910390fd5b8360045f8881526020019081526020015f205f3373ffffffffffffffffffffffffffffffffffffffff1673ffffffffffffffffffffffffffffffffffffffff1681526020019081526020015f205f828254611c7e9190612c98565b9250508190555083826004015f828254611c989190612c98565b925050819055503373ffffffffffffffffffffffffffffffffffffffff16867f4f1eed5e863a822b0f9eb960dfdab2cc5a99beec4b191f2a7a9c7e28e5a15524600187604051611ce9929190612ef9565b60405180910390a35b505050505050565b620f424081565b5f5481565b6001602052805f5260405f205f91509050805f015490806001015490806002015490806003015490806004015490806005015490806006015f9054906101000a900460ff16908060060160019054906101000a900460ff16905088565b7f000000000000000000000000000000000000000000000000000000000000000073ffffffffffffffffffffffffffffffffffffffff163373ffffffffffffffffffffffffffffffffffffffff1614158015611e0b57507f000000000000000000000000000000000000000000000000000000000000000073ffffffffffffffffffffffffffffffffffffffff163373ffffffffffffffffffffffffffffffffffffffff1614155b15611e42576040517f1da230a100000000000000000000000000000000000000000000000000000000815260040160405180910390fd5b805f5481101580611e72575060015f8281526020019081526020015f2060060160019054906101000a900460ff16155b15611ea9576040517f8db4181500000000000000000000000000000000000000000000000000000000815260040160405180910390fd5b5f60015f8481526020019081526020015f2090505f816002015414611efa576040517f30b7b73800000000000000000000000000000000000000000000000000000000815260040160405180910390fd5b5f8160030154141580611f1157505f816004015414155b15611f48576040517ff9f4f8f900000000000000000000000000000000000000000000000000000000815260040160405180910390fd5b5f8160060160016101000a81548160ff021916908315150217905550827f8208c3301e2b33ed01bd95b0317bf43fb2120df72b7406bef4ef4310b1bce5f060405160405180910390a2505050565b7f000000000000000000000000000000000000000000000000000000000000000073ffffffffffffffffffffffffffffffffffffffff163373ffffffffffffffffffffffffffffffffffffffff161415801561203e57507f000000000000000000000000000000000000000000000000000000000000000073ffffffffffffffffffffffffffffffffffffffff163373ffffffffffffffffffffffffffffffffffffffff1614155b15612075576040517f1da230a100000000000000000000000000000000000000000000000000000000815260040160405180910390fd5b825f54811015806120a5575060015f8281526020019081526020015f2060060160019054906101000a900460ff16155b156120dc576040517f8db4181500000000000000000000000000000000000000000000000000000000815260040160405180910390fd5b5f5f90505b8383905081101561212a5761211d8585858481811061210357612102612c6b565b5b905060200201602081019061211891906128b7565b6123fb565b80806001019150506120e1565b5050505050565b5f60015f8481526020019081526020015f2090505f60035f8581526020019081526020015f205f8473ffffffffffffffffffffffffffffffffffffffff1673ffffffffffffffffffffffffffffffffffffffff1681526020019081526020015f205490505f60045f8681526020019081526020015f205f8573ffffffffffffffffffffffffffffffffffffffff1673ffffffffffffffffffffffffffffffffffffffff1681526020019081526020015f205490505f81836121f29190612c98565b90505f8111156123a4575f60035f8881526020019081526020015f205f8773ffffffffffffffffffffffffffffffffffffffff1673ffffffffffffffffffffffffffffffffffffffff1681526020019081526020015f20819055505f60045f8881526020019081526020015f205f8773ffffffffffffffffffffffffffffffffffffffff1673ffffffffffffffffffffffffffffffffffffffff1681526020019081526020015f208190555082846003015f8282546122b19190612f20565b9250508190555081846004015f8282546122cb9190612f20565b925050819055507f000000000000000000000000000000000000000000000000000000000000000073ffffffffffffffffffffffffffffffffffffffff1663a9059cbb86836040518363ffffffff1660e01b815260040161232d929190612d69565b6020604051808303815f875af1158015612349573d5f5f3e3d5ffd5b505050506040513d601f19601f8201168201806040525081019061236d9190612dba565b6123a3576040517f045c4b0200000000000000000000000000000000000000000000000000000000815260040160405180910390fd5b5b8473ffffffffffffffffffffffffffffffffffffffff16867f757db202439744d74cb7a1a6abc7549f4a49e7efba6f870c33e2bf48ef343cb3836040516123eb9190612681565b60405180910390a3505050505050565b5f60015f8481526020019081526020015f2090505f60025f8581526020019081526020015f205f8473ffffffffffffffffffffffffffffffffffffffff1673ffffffffffffffffffffffffffffffffffffffff1681526020019081526020015f205490505f8111156125a4575f60025f8681526020019081526020015f205f8573ffffffffffffffffffffffffffffffffffffffff1673ffffffffffffffffffffffffffffffffffffffff1681526020019081526020015f208190555080826002015f8282546124cb9190612f20565b925050819055507f000000000000000000000000000000000000000000000000000000000000000073ffffffffffffffffffffffffffffffffffffffff1663a9059cbb84836040518363ffffffff1660e01b815260040161252d929190612d69565b6020604051808303815f875af1158015612549573d5f5f3e3d5ffd5b505050506040513d601f19601f8201168201806040525081019061256d9190612dba565b6125a3576040517f045c4b0200000000000000000000000000000000000000000000000000000000815260040160405180910390fd5b5b8273ffffffffffffffffffffffffffffffffffffffff16847f9bf56934175280aa1916f0593e2fedd5a548b20ba9c49b69a768b794a87cdd28836040516125eb9190612681565b60405180910390a350505050565b5f5ffd5b5f5ffd5b5f819050919050565b61261381612601565b811461261d575f5ffd5b50565b5f8135905061262e8161260a565b92915050565b5f5f6040838503121561264a576126496125f9565b5b5f61265785828601612620565b925050602061266885828601612620565b9150509250929050565b61267b81612601565b82525050565b5f6020820190506126945f830184612672565b92915050565b5f73ffffffffffffffffffffffffffffffffffffffff82169050919050565b5f6126c38261269a565b9050919050565b6126d3816126b9565b81146126dd575f5ffd5b50565b5f813590506126ee816126ca565b92915050565b5f5f6040838503121561270a576127096125f9565b5b5f61271785828601612620565b9250506020612728858286016126e0565b9150509250929050565b61273b816126b9565b82525050565b5f6020820190506127545f830184612732565b92915050565b5f5ffd5b5f5ffd5b5f5ffd5b5f5f83601f84011261277b5761277a61275a565b5b8235905067ffffffffffffffff8111156127985761279761275e565b5b6020830191508360208202830111156127b4576127b3612762565b5b9250929050565b5f5f5f604084860312156127d2576127d16125f9565b5b5f6127df86828701612620565b935050602084013567ffffffffffffffff811115612800576127ff6125fd565b5b61280c86828701612766565b92509250509250925092565b5f6020828403121561282d5761282c6125f9565b5b5f61283a84828501612620565b91505092915050565b5f60ff82169050919050565b61285881612843565b8114612862575f5ffd5b50565b5f813590506128738161284f565b92915050565b5f5f6040838503121561288f5761288e6125f9565b5b5f61289c85828601612620565b92505060206128ad85828601612865565b9150509250929050565b5f602082840312156128cc576128cb6125f9565b5b5f6128d9848285016126e0565b91505092915050565b5f81519050919050565b5f82825260208201905092915050565b5f819050602082019050919050565b61291481612601565b82525050565b5f612925838361290b565b60208301905092915050565b5f602082019050919050565b5f612947826128e2565b61295181856128ec565b935061295c836128fc565b805f5b8381101561298c578151612973888261291a565b975061297e83612931565b92505060018101905061295f565b5085935050505092915050565b5f6040820190508181035f8301526129b1818561293d565b905081810360208301526129c5818461293d565b90509392505050565b5f819050919050565b5f6129f16129ec6129e78461269a565b6129ce565b61269a565b9050919050565b5f612a02826129d7565b9050919050565b5f612a13826129f8565b9050919050565b612a2381612a09565b82525050565b5f602082019050612a3c5f830184612a1a565b92915050565b5f606082019050612a555f830186612672565b612a626020830185612672565b612a6f6040830184612672565b949350505050565b612a8081612843565b82525050565b5f8115159050919050565b612a9a81612a86565b82525050565b5f61010082019050612ab45f83018b612672565b612ac1602083018a612672565b612ace6040830189612672565b612adb6060830188612672565b612ae86080830187612672565b612af560a0830186612672565b612b0260c0830185612a77565b612b0f60e0830184612a91565b9998505050505050505050565b5f5f5f5f60808587031215612b3457612b336125f9565b5b5f612b4187828801612620565b9450506020612b5287828801612620565b9350506040612b6387828801612620565b9250506060612b7487828801612620565b91505092959194509250565b5f5f5f60608486031215612b9757612b966125f9565b5b5f612ba486828701612620565b9350506020612bb586828701612620565b9250506040612bc686828701612620565b9150509250925092565b7f4e487b71000000000000000000000000000000000000000000000000000000005f52601160045260245ffd5b5f612c0782612601565b91507fffffffffffffffffffffffffffffffffffffffffffffffffffffffffffffffff8203612c3957612c38612bd0565b5b600182019050919050565b5f604082019050612c575f830185612672565b612c646020830184612672565b9392505050565b7f4e487b71000000000000000000000000000000000000000000000000000000005f52603260045260245ffd5b5f612ca282612601565b9150612cad83612601565b9250828201905080821115612cc557612cc4612bd0565b5b92915050565b5f612cd582612601565b9150612ce083612601565b9250828202612cee81612601565b91508282048414831517612d0557612d04612bd0565b5b5092915050565b7f4e487b71000000000000000000000000000000000000000000000000000000005f52601260045260245ffd5b5f612d4382612601565b9150612d4e83612601565b925082612d5e57612d5d612d0c565b5b828204905092915050565b5f604082019050612d7c5f830185612732565b612d896020830184612672565b9392505050565b612d9981612a86565b8114612da3575f5ffd5b50565b5f81519050612db481612d90565b92915050565b5f60208284031215612dcf57612dce6125f9565b5b5f612ddc84828501612da6565b91505092915050565b5f602082019050612df85f830184612a77565b92915050565b7f4e487b71000000000000000000000000000000000000000000000000000000005f52604160045260245ffd5b5f606082019050612e3e5f830186612732565b612e4b6020830185612732565b612e586040830184612672565b949350505050565b5f819050919050565b5f612e83612e7e612e7984612e60565b6129ce565b612843565b9050919050565b612e9381612e69565b82525050565b5f604082019050612eac5f830185612e8a565b612eb96020830184612672565b9392505050565b5f819050919050565b5f612ee3612ede612ed984612ec0565b6129ce565b612843565b9050919050565b612ef381612ec9565b82525050565b5f604082019050612f0c5f830185612eea565b612f196020830184612672565b9392505050565b5f612f2a82612601565b9150612f3583612601565b9250828203905081811115612f4d57612f4c612bd0565b5b9291505056fea2646970667358221220480fb56834d3fa7f52e5eb143f0571ca59d7442a09ab08837def5ee5f4ffc8a464736f6c634300081e0033","linkReferences":{}},"methodIdentifiers":{"ADMIN()":"2a0acc6a","ADMIN_DEV()":"4d39c69e","MIN_AMOUNT()":"ddbcb5fa","TOKEN()":"82bfefc8","adminClose(uint256)":"f229be81","adminCreateExperiment(uint256,uint256)":"00c62450","adminRefund(uint256,address[])":"f9a3be04","adminReturnBet(uint256,address[])":"410fa4f3","adminSetResult(uint256,uint8)":"4932d87d","adminWithdraw(uint256)":"7c5b4a37","bets0(uint256,address)":"869df59c","bets1(uint256,address)":"10b81915","deposits(uint256,address)":"53a58de1","experiments(uint256)":"eb4706b5","getExperimentInfo(uint256)":"95003a0f","getUserExperiments(address)":"5fe3c8ed","getUserPosition(uint256,address)":"869da9db","nextExperimentId()":"e40b1e31","userBet(uint256,uint256,uint256)":"d53a36cb","userClaimBetProfit(uint256)":"47593352","userDeposit(uint256,uint256)":"c4164274","userFundAndBet(uint256,uint256,uint256,uint256)":"b4e94f7a","userUnbet(uint256)":"718eeffc","userUndeposit(uint256)":"924020b4"},"id":16}